:020000041000EA
:10000000F819012021270010555900100D27001064
:100010000D2700100D2700100D2700100000000014
:100020000000000000000000000000001D2800107B
:100030000D27001000000000E92700100133001018
:100040006D2900106D2900106D2900106D29001018
:100050006D2900106D2900106D2900106D29001008
:100060006D2900106D2900106D2900106D290010F8
:100070006D2900106D2900106D2900106D290010E8
:100080006D2900106D2900106D2900106D290010D8
:100090006D2900106D2900106D2900106D290010C8
:1000A0006D2900106D2900106D2900106D290010B8
:1000B0006D2900106D2900106D2900106D290010A8
:1000C0006D2900106D2900106D2900106D29001098
:1000D0006D2900106D2900106D2900106D29001088
:1000E0006D2900106D2900106D2900106D29001078
:1000F0006D2900106D2900106D2900106D29001068
:100100006D2900106D2900106D2900106D29001057
:100110006D2900106D2900106D2900106D29001047
:100120006D2900106D2900106D2900106D29001037
:100130006D2900106D2900106D2900106D29001027
:100140006D2900106D2900106D2900106D29001017
:100150006D2900106D2900106D2900106D29001007
:100160006D2900106D2900106D2900106D290010F7
:100170006D2900106D2900106D2900106D290010E7
:100180006D2900106D2900106D2900106D290010D7
:100190006D2900106D2900106D2900106D290010C7
:1001A0006D2900106D2900106D2900106D290010B7
:1001B0006D2900106D2900106D2900106D290010A7
:1001C0006D2900106D2900106D2900106D29001097
:1001D00053B94AB9002908BF00281CBF4FF0FF31AE
:1001E0004FF0FF3000F00CB8ADF1080C6DE904CE13
:1001F00000F008F8DDF804E0DDE9022304B0704700
:10020000704700BF2DE9F04786468C460846089E99
:10021000154674461946002B40F0C2808542B2FA5A
:1002200082F245D94AB1C2F1200300FA02FC2EFA4B
:1002300003F3954043EA0C0C94404FEA154EA8B2E4
:10024000BCFBFEF8230C0EFB18CC08FB00F943EABC
:100250000C43994528D9EB1808F1FF3704D299458A
:1002600002D9A8F102072B44A3EB0903A4B2B3FB04
:10027000FEFC0EFB1C330CFB00F044EA0344A042DE
:1002800014D92C190CF1FF3304D2A04202D9ACF1DD
:1002900002032C44241A43EA07401EB1D440002331
:1002A00034607360BDE8F0874746DDE76346F1E7F9
:1002B00092BB431B01214FEA154EAFB2B3FBFEFCCC
:1002C000200C0EFB1C330CFB07F840EA0343984557
:1002D00062D9EB180CF1FF3004D2984502D9ACF189
:1002E00002002B44A3EB0803A4B2B3FBFEFC0EFBFD
:1002F0001C330CFB07F744EA0344A7424ED92C19E0
:100300000CF1FF3304D2A74202D9ACF102032C4412
:10031000E41B43EA0040C0E7C2F1200320FA03F1E6
:10032000954090402EFA03F303434FEA154EAFB2C7
:10033000B1FBFEFC0EFB1C10190C0CFB07F841EA8C
:100340000041884504FA02F422D969180CF1FF3003
:1003500004D2884502D9ACF102002944A1EB08017E
:100360009BB2B1FBFEFC0EFB1C110CFB07F743EA32
:1003700001439F420ED9EB180CF1FF3104D29F428A
:1003800002D9ACF102012B44DB1B41EA004192E7A8
:100390006046E3E76146F7E76046A3E76346B7E7F1
:1003A000834206D916B9002108467BE7C6E900E07A
:1003B000F9E7B3FA83F78FB9834201D3724508D8BE
:1003C000BEEB020460EB030301209C461EB9002132
:1003D00068E73846FAE7C6E9004CF8E7C7F1200CB1
:1003E000BB4022FA0CF41C432EFA0CF120FA0CF359
:1003F000B84001434FEA14490EFA07F5B3FBF9F888
:100400001FFA84FE09FB18300B0C08FB0EFA43EAB6
:1004100000439A4502FA07F240D9E31808F1FF3089
:1004200004D29A4502D9A8F102002344A3EB0A039F
:1004300089B2B3FBF9F809FB183308FB0EFE41EA59
:1004400003418E452CD9611808F1FF3304D28E4543
:1004500002D9A8F10203214443EA0040A0FB02981C
:10046000A1EB0E014145CE46434602D306D14D4590
:1004700004D2B9EB020E68EB04030138002EA6D0BB
:10048000B5EB0E0261EB030101FA0CFC22FA07F353
:100490004CEA0303F940C6E9003198E74046C5E756
:1004A0004346D9E7034613F8012B002AFBD1181A5B
:1004B0000138704710B5054C204605F054FD18B9B9
:1004C0002168034803F0EAFF002010BD5C640010BF
:1004D000806A00102DE9F04F91B08407009302F07C
:1004E00004030293C2F3C20303F10103DDF8689031
:1004F000039205460E46059340F0BA81041D30B1C3
:10050000072909D86FF01B0011B0BDE8F08F01F08A
:100510000706341DC6F10806009B4FF00008591E5F
:100520004FF0040A4FF0FF330193CDF81080474697
:10053000C34653460DB1009A22600598002800F387
:10054000E8809848009A824203D397488242C0F0DC
:10055000E080039AA4EB050E92074FEA9E0000F19B
:1005600003810F2F00F2B180002D00F0058107F10B
:1005700040020DEB020C019A0CF8200C0CF8102C28
:10058000049801300490E7E07A285DD84B280ED813
:10059000472859D829282DD8252852D054D8202882
:1005A0007AD02338D0F1000B4BEB000B74E04C38C1
:1005B0002E2849D8DFE800F07048484848484848A5
:1005C000484848484B484848484848484859484B94
:1005D0004B595959704B6D487048184B1848488210
:1005E0007F4B48484B487F0000204FF0000B4FF0F6
:1005F000040A38E02A38C0B2012202FA00F010EAF8
:100600000E0F49D110F0625C2FD110EA020B43D0DB
:100610006046013C5444B4FBFAF40AFB04F4002D98
:1006200061D0A3EB050CA444B4453FF66BAF0028A2
:1006300068D1042B47D159F8043B236004340423C8
:100640002AE0019A013A01924FF0000B24E011F8E0
:10065000010C6C2834D111F8023C00206C2B83462D
:10066000C5D14FF0080A5346D3E709F1070929F02D
:1006700007090734F9E802AB24F0070435B10698FE
:100680002044B0423FF63EAFC4E900AB08344FF01F
:10069000000B4FF0080A534611F8010F002878D0DC
:1006A000BBF1000F7FF470AF2528F5D1019B01331A
:1006B00001934FF0010B4FF0040AECE7584694E722
:1006C00000208346A5E7082B02D06FF015001BE73A
:1006D00009F1070929F00709F9E80223C4E9002311
:1006E00008340823D8E768B9042B02D109F10409BA
:1006F000A4E7082BE9D109F1070929F0070909F155
:100700000809EDE7059A013A059259F8042B009281
:1007100010E7039A900720D5A4EB050E4FEA9E0040
:100720004FF0010CBEF5007FCFD20F2FCDD8F5B121
:1007300007F140020DEB020EC0B2019A0EF8200C38
:100740000EF8102CBCF1000F3FF41AAF60F07F00E0
:100750000EF8200C08F101080137C5F10802043435
:1007600006924FF6DA7E97E74FF0000CDAE7BCF11D
:10077000000F01D00136EFE7029802360028EBD1D6
:100780000098CDE90631FFF78DFEDDE9063106441C
:10079000E2E7631BB3F5806F97D23DB9A6F1080479
:1007A000E018B1E6846300106C740010029A2860AF
:1007B0009B082B709DF81030C2B1EB7085F8028059
:1007C000B8F1000F05D008A80022C5F1010C97422E
:1007D0000ED1C5F101030DF120094FF0000A01937C
:1007E0000DF1300B574512D1601B8DE66B70E5E7BC
:1007F00010F8013B190608D504EB0C0EB64503F0C2
:100800007F033FF67FAE04F8013B0132DFE7B8F12A
:10081000000F03D099F90020002A17DB029BD3B107
:100820001AF80B2004F8012B0022019B9818204491
:10083000B0423FF667AE99F8000004F8010B00994A
:100840000392204605F075FD039A14440AF1010A4B
:1008500009F10109C6E799F8002055F82230009304
:10086000029B45F822300098FFF71CFE421CDCE793
:100870006FF00D0048E600BF2DE9F04F97B000AFD4
:1008800090F802A0D7F880B03B62CBF3C0030446D7
:10089000FA62BB61894641B9457800780AEB80006D
:1008A00020444D4517D8A0EB0409E378FB61BAF169
:1008B000000F02D01BF0010F16D1FB6953BBFB6A7E
:1008C0001BB13A6A4946204698474D4628465C3750
:1008D000BD46BDE8F08F461C3046FFF7E3FD013012
:1008E000304409F10109DCE7237862687A62FA6A28
:1008F0009900796104EB8301002A40F000814D46A4
:100900000E4601EB0A094FF000084E454CD101EBB1
:100910000A0610E01BF0020FD1D023789A007A610A
:1009200062687A62FA6A04EB8301002A77D14D4645
:1009300001EB0A0690461BF0050F0CBF02230123B2
:10094000FB62FB6906EB430A0BF00203BB625645F0
:10095000BCD016F8021B16F8013C54F82390AF4B9C
:10096000994502D3AE4B994536D3BB69002B40D095
:10097000786A04F0C8F800283BD0E9468AB06A4695
:10098000A84B53617B6AC2E906314FF400731384AC
:10099000A54B42F8103FA54800234FF4125100F038
:1009A00007FC023DCD46D2E716F8013BF96254F848
:1009B0002300FFF777FDD7F88430F96A01304BB197
:1009C000D7F8883098453EBFD7F8843023F8180010
:1009D00008F10108054498E7BB6923B1786A04F07F
:1009E00092F80028C9D11BF0010F05D1FB6AED1A5E
:1009F000ADE7BB6A002BAAD04846FFF753FDD7F8F6
:100A0000843053B1D7F8883098453FBFD7F8842059
:100A1000431C22F8183008F10108054497E7BAF1A1
:100A2000000F72D01BF0040672D0D046002607F1EA
:100A3000480052463B61B96205F07BFCB96A3B69EC
:100A400001EB0A02BA62FA69F9695200FA60BA6AFD
:100A500002EB41023A610BF00202BA603A69B96AEC
:100A60008A4257D162787A621BF0020F32440CBF7F
:100A70004FEA580100211BF0010FD2B240F09F80D5
:100A80001BF0040F14BF40460020BB616270A070D1
:100A9000E1703A6A7969FB6A20469847051EFFF6BD
:100AA00015AFBB6923707B6A6370FB69E3704146D5
:100AB0003A6AFB6A84F802A007F148009847B0F14F
:100AC0000008C0F2B5807B693A6AA9EB0A01C91A2D
:100AD000FB68C91AD7E90A0398470028C0F2AA8020
:100AE000A84408EB00054FF0000B07F1380AB345A6
:100AF00067D300213A6AFB6A08469847E6E65646FD
:100B00004FF0000807F1380093E75646D04697E7C4
:100B1000B04695E7BA6A12F8021BBA6212F8015C95
:100B20003E4A54F82500904202D33D4A90421ED3DB
:100B3000BA6932B1786A7B6003F0E5FF7B68002810
:100B40008CD1BA6802BB08F1280207F1300C08F119
:100B50000100944407F1580252FA80F008F10208AB
:100B60000CF8101C5FFA88F800F8105C76E7BA6998
:100B70003AB1786A7B6003F0C6FF7B6800287FF497
:100B80006DAF1BF0010F09D006F1280207F130000C
:100B9000711C161806F8205CCEB25FE71BF0040F3C
:100BA0003FF45CAF08F1280207F1300008F10101C1
:100BB00002EB000808F8105C5FFA81F84EE70020AD
:100BC00063E71BF80A3087F8373054F82390D7F8DA
:100BD0008430FBB133F81B803A6AFB6A012107F1CC
:100BE00037009847002825DB0544B8F1000F06D1EF
:100BF0004846FFF757FC00F101081FFA88F83A6AE7
:100C0000FB6A414648469847002813DB05440BF130
:100C1000010B6CE7D7F88480DEE700BF8463001027
:100C20006C740010986A00100400000198670010AE
:100C300045464BE6054649E6014B1860704700BF44
:100C40000000012080B505460E461746984603F081
:100C50008FF9034605F08CFBDFF81890044649F83D
:100C60000030424630463946A84754F8090001F0A2
:100C70006DFD00BF080000002DE9F047DFF8588047
:100C8000044607464FF0010914B93846BDE8F0871D
:100C900094FAA4F5B5FA85F509FA05F32E0108EBE7
:100CA00005156FEA030A24EA03042B7B002BEBD023
:100CB00058F806301B694BB946440422736828462D
:100CC000196807EA0A0700F05FFADDE72846984747
:100CD0000028D9D1F0E700BFD867001030B510491F
:100CE000104889B0002205F099FA0F4D0F490022F3
:100CF0000023CDE9062300240E23CDE90334CDE9FA
:100D000001440B4B00944FF44072284602F06CFEF5
:100D10000849284605F074F9204609B030BD00BFE7
:100D2000390D00101006012098010120B80901209A
:100D30002D1000104C6B0010014802F0B1BD00BF37
:100D4000840101202DE9F04780461E480F4604F03B
:100D50007AF9064678B300252846BDE8F087237B5C
:100D60006BB12368DB680BB12046984723681B6989
:100D7000CBB9636804221968204600F005FA0136F1
:100D800010344C45EBD3B8F1000FE5D0002DE2D084
:100D90002846FFF771FF0546002FF7D00021642099
:100DA00003F0C8F8F2E7204698470028E1D00AFA95
:100DB00006F31D43E3E7044CDFF8109005464FF0BF
:100DC000010ADEE7D8070120D8670010E8670010A5
:100DD000014B53F820007047FC67001008B503462C
:100DE00008462BB1044A136000F078FC002008BDCF
:100DF0006FF01500FBE700BF0400012010B5044CA4
:100E0000237813B9034802F04BFD0123237010BD72
:100E1000AC0901208401012010B504460B4804F000
:100E200012F95CB1BFF35B8F094B53E8001F013926
:100E300043E80012002AF8D1BFF35B8F054805F0A4
:100E4000F9F90548BDE8104002F02ABDD00701209D
:100E5000D407012010060120840101200020064B48
:100E6000BFF35B8F014653E8000F43E80012002AEE
:100E7000F9D1BFF35B8F7047D007012070B5FFF742
:100E8000EDFF084C084E0546B44200D370BD6368C0
:100E90005B792BB123685B6813B1294620469847DC
:100EA0001034F1E7D8670010E867001010B5044C63
:100EB0000449204603F055FF034B1C6010BD00BFE2
:100EC00048010120E8670010C8070120084A0948C6
:100ED00008B500231370084A1360084A4FF47A716A
:100EE0001360FFF77BFFBDE80840FFF7DFBF00BFDF
:100EF000AD09012061500010D0070120D407012066
:100F0000014600220148002303F04CBF48010120A4
:100F1000014803F0E2BF00BF48010120024B014637
:100F2000186804F02EB800BFC8070120014804F07B
:100F300063B800BF4801012070B5254B1878002820
:100F400044D0FFF7E5FF054690B1BFF35B8F214B1F
:100F500053E8001F013943E80012002AF8D1BFF31B
:100F60005B8F1D4C1D4EB44226D32846FFF7D6FF9B
:100F70001B4B1C4C1B68002B12DD05F04DF90A229F
:100F80000023FFF725F9D4E90032C01A40F2E93313
:100F900061EB0201984271F1000101D3FFF76EFF8E
:100FA000D4E9003213F57A7342F10002C4E9003249
:100FB000BDE87040FFF7BABF63685B7923B123686F
:100FC00029461B68204698471034CCE770BD00BF07
:100FD000AC090120D4070120D8670010E867001091
:100FE000D00701200806012070B50D4D297861B9A0
:100FF0000120FFF7A7FE0B4C0B4EB44206D3FFF7C0
:101000009BFF0028FBD101232B7070BD63685B79C7
:101010001BB1236820469B6898471034EDE700BF5A
:10102000AD090120D8670010E867001000212DE904
:10103000F0470846FFF786FE044658B34FF4FA78A7
:101040004FF0000905F094F91B4B1C4A1B58136024
:1010500033B11B4B1B68092B02DD1A4802F020FC40
:10106000194FDFF860A0002544B12046FFF704FEC9
:10107000044618B94FF0FF384FF0FF39FFF75CFF17
:10108000064628B9B5B942464B46504602F02CFCFC
:101090003546E9E74FF0FF384FF0FF39D2E72B68CC
:1010A0009B691BB100221146284698471035BD4266
:1010B000F5D3E8E7054DFAE708000000CC0701206A
:1010C000D407012084010120E8670010D8670010D0
:1010D00013B5184803F0B7FF174B1B7873B1EFF344
:1010E0001184202383F31288BFF36F8FFFF724FF4F
:1010F00084F31188BFF36F8F02B010BD0F4B1B68D4
:10110000002BF9D050B900220023CDE900230C4870
:1011100042F21072002303F081F9EDE70928EBD1C8
:10112000074805F087F8074802B0BDE8104002F014
:10113000B7BB00BFD4070120AD090120CC070120B7
:10114000100601208401012010B5064B1B680446DF
:1011500098472146A060044803F0A0FEBDE8104077
:10116000FFF7B6BF0400012048010120044A054BE7
:101170009B1AB1EBD30F34BF52F8310000207047F7
:1011800090670010D8670010084BC31A10B41B11E9
:1011900044680133237143689A7143681960436856
:1011A00001225A7110BCFFF729BE00BFD86700109A
:1011B0002DE9F04F8FB004AFC1F34A28B8600D4657
:1011C00091467B600C0DB8F1000F63D0002607F14B
:1011D00014034FF0040B4FF00A0AC7F80C80C7E95C
:1011E00007667E620193CDF808B0CDF800A007F144
:1011F0001C03F96832464846FFF73EFBB0F5006F26
:1012000003461CD36C468AB0D9F8041004AB2648B8
:10121000C3E9050140F2FF71D9611A464FF400712C
:101220001984224B42F8103F214833464FF41251A3
:10123000FFF7BEFFA5462C37BD46BDE8F08FC0F3D3
:101240000A0804F11700184420F0070080083B60EA
:10125000FFF756FE68F35325044690B13B68154AE4
:10126000C7E9083600F1100107F11403F961CDE96F
:1012700000A3CDF808B0F96807F11C034846FFF752
:10128000FBFA68F353257B68B9682A46204603F0C9
:1012900018FFD0E704F1170020F007008008FFF7DF
:1012A0002FFE0446EDE700BF616B00100400000153
:1012B000A8670010975000102DE9F04F87B0DDE9C6
:1012C0001279DDE9105A0446039193469846BFB15E
:1012D000CDF800903B46524610210020CDF81490E6
:1012E000FFF7F8F8B0F5006F06460AD3184A194818
:1012F00040F2FF73022107B0BDE8F04F03F03ABFA0
:101300003E4605F11700304420F0070004F00704C2
:101310008008FFF7F5FD0BF0070BE40044EA8B149F
:1013200044EA462444EA0554054640B13FB1CDF8AD
:1013300000903B46524631461030FFF7CBF80399F8
:1013400043462246284607B0BDE8F04F03F0B9BE39
:10135000A06B0010A8670010406820B1034BC01AB2
:1013600040F3CF0070474FF0FF3070479067001098
:101370000EB403B503AB014653F8042B04480193A4
:1013800001F01AFB02B05DF804EB03B0704700BF38
:10139000BF510010CA0605D48B064CBF0249034951
:1013A000FFF7E6BF704700BFD96B0010D86B001085
:1013B0002DE9F04F89B09B46149B06939DF84CA0F5
:1013C000159B0593169B179E049304460D46904665
:1013D000BAF1000F00F09D8006F48073079303F0CC
:1013E00058FE06F00209024600283ED091492046E8
:1013F000FFF7BEFF0746B9F1000F08D016F0440F03
:1014000035D18D492A462046FFF7B2FF074406F042
:10141000010353B1894B8A4953F82A20894B20464E
:10142000002A08BF1A46FFF7A3FF06F48073002BBB
:1014300049D006F00803002B63D1B8F1000F66D045
:10144000814942462046FFF793FF0546069B3D44EF
:10145000002B6DD1049B002B73D1F30700F1E480C6
:1014600031462046FFF796FFD8E00746C3E7774BA3
:1014700018680028CAD0764B4FF47A791B68B5FB00
:10148000F3F54FF46161B5FBF0F300FB135509FB75
:1014900005F54FF03C0CB3FBF1F201FB1231B5FB4B
:1014A000F0FEB1FBFCF300FB1E550CFB131109FB16
:1014B00005F50091B5FBF0F56649CDE901E520465B
:1014C000FFF756FFA2E706F00803EBB1624B634952
:1014D00053F82A202046FFF74BFF0546B8F1000FCE
:1014E00005D0594942462046FFF742FF0544BBF16B
:1014F000000FABD05A495A462046FFF739FF054442
:10150000A4E74FF0000BE1E706F00805E6E74546E3
:101510009CE7BBF1010F069B06D1002B64D1049B15
:10152000002B7BD000250CE0002BF8D04D485CE070
:101530004D48069B4D49224603F0B4FA049B002B0C
:1015400068D0DFF82C81DFF82C91049F3146102FF2
:10155000204628BF1027FFF71DFF4FF0000B5D4509
:1015600045DC059B49461A782046FFF701FF4FF0FE
:10157000010B1BF0070F03D141462046FFF7F8FE91
:101580005F453BD9059B494613F80B202046FFF7E2
:10159000EFFE0BF1010BBBF1100FEAD136492046EB
:1015A0004FF0000BFFF7E4FE5A46059B9A5CA2F150
:1015B00020015F2928BF2E2230492046FFF7D8FEA0
:1015C0000BF1010BBBF1100F1DD01BF0070F03D166
:1015D00041462046FFF7CCFE5F455A46E5D84146D6
:1015E0002046FFF7C5FEEBE71F485546A1E74146F9
:1015F0002046FFF7BDFE0BF1010BB0E72049204666
:10160000FFF7B6FEC5E7059B3B440593049BDB1B38
:1016100004939AD1BAF1000F7FF41FAF204609B0AE
:10162000BDE8F04F03F0BEBD064A05492046FFF76E
:101630009FFE15E7E06B0010E46B00100C680010D3
:10164000096C0010DB6B00100C6C0010E00701202F
:10165000DC070120ED6B001020680010106C0010FA
:10166000166C0010F5510010BF510010B929001080
:10167000236C00101B6C0010256C0010276C0010F0
:10168000216C001073B542F20F738B4228BF0B46DA
:1016900005680F4A04460521684602F011FF636899
:1016A0000C495B6806460B22284603F06DFD636813
:1016B0003246694628465B6803F066FD6368064962
:1016C0005B681B22284603F05FFD02B070BD00BFBF
:1016D000376D0010466C00102A6C0010074A00217C
:1016E0000123904206D8064A01B901231360054B35
:1016F0001860704740085B000121F2E740420F008C
:10170000DC070120E0070120F8B5074F0D4604462D
:101710004618B44201D12846F8BD14F8011BBB6835
:1017200001485B689847F4E720640010054A936815
:1017300023F48073936002F5A052136843F0805342
:1017400013607047005410404FF080439A6802F4D1
:101750006062B2F5206F25D014D8B2F5C06F24D0E6
:10176000B2F5006F18D0134B1349B2F5806F18BF54
:101770000B464FF080429268C2F38212D3400F4A68
:1017800013607047B2F5406F11D00D4B0A49B2F5A6
:10179000606F18BF0B46ECE79A68074BC2F38132C3
:1017A000D340E6E74FF4E103E3E7064BE1E74FF40C
:1017B0000043DEE70048E80100E1F50510000120E4
:1017C00020BCBE008038010038B54FF0E023184936
:1017D0009C691A6922F480320A601A69D2075BBFD9
:1017E0006FF07F4405225D695C615CBF9C611A619A
:1017F000104B114A19684FF00003A0FB010154BFC0
:101800004FF080750135FEF7E3FC0C4BB0FBF5F2B1
:1018100005FB120084421A609FBF1A6801321A60E9
:101820002D19074B94BF281A201A186038BD00BF25
:101830000C0801201000012040420F00140001207C
:101840001008012010B50B4A0B4C11602268002AC9
:101850000DDC50B1FFF7B8FF2368002BC1BF4FF07C
:10186000E022136943F002031361002010BD6FF002
:101870000500FBE7080801201400012010B5094C01
:10188000236823B16FF00F00984700232360064BB5
:101890001A684FF0E0231A61044B4FF0FF321A60D0
:1018A00010BD00BF080801200C0801201400012011
:1018B00038B5114B1A68002A08DA104C23681BB19E
:1018C0000020984700232360002038BD1C6884B99D
:1018D0004FF0E0239A690A4B1B689A4209D8074DDA
:1018E000FFF7CCFF2B68002BEED0204698472C60EA
:1018F000EAE76FF00500E8E714000120080801207E
:10190000100801203F2808D90B4A4038516AC0B25C
:10191000012383400B43536270471F284FF08042DE
:1019200007D92038916CC0B2012383400B439364E4
:101930007047516AECE700BF006C10403F2809D99E
:101940000E4940384B6AC0B20122824023EA0203AA
:101950004B6270471F284FF0804308D920389A6C9B
:10196000C0B20121814022EA01029A6470475A6A9A
:101970000121814022EA01025A627047006C104046
:10198000054A136823F0004313604FF080429368C8
:1019900043F400339360704700681040B0F1807FDB
:1019A00038B54FF0000104460BD10B48FFF74AFF52
:1019B0004FF08045AB68234206D0FFF75FFF002061
:1019C00038BD4FF47A70F1E7FFF772FF0630F1D0BF
:1019D0006FF00900F4E700BFA0860100023808B5E7
:1019E000052836D8DFE800F0271F030F30184FF026
:1019F00080424FF00060936843F400239360BDE899
:101A00000840FFF7CBBF4FF080424FF08050936803
:101A100043F480139360F2E70F4803F0EDFDD0B973
:101A20004FF00040EBE70D4A136843F0805313601A
:101A30004FF00050E3E74FF080424FF08070936822
:101A400043F480339360DAE7FFF79AFF4FF00070BA
:101A5000D5E76FF0020008BD68680010006810400C
:101A6000432810D14FF080431B6D03F0F003A02BEF
:101A70000BD1112001234FF0804283405360516805
:101A80000B42FCD170473F2809D940380A4AC0B2FE
:101A900001238340536051680B42FCD170471F28DB
:101AA000E8D92038C0B201234FF08042834053640C
:101AB000516C0B42FCD17047006C10400728F8B500
:101AC00017D814230E4E03FB00F57719735983B111
:101AD0000C48012103F0F9FB044668B9FB6870511A
:101AE0001860FB6807485A685A6003F0FCFB204600
:101AF000F8BD6FF00204FAE76FF00504F7E700BFE6
:101B0000180801201408012008B5164B984207D187
:101B10000B20FFF7A5FF0920FFF7F4FE002008BD0A
:101B2000114B984204D10C20FFF79AFF0A20F3E7EB
:101B30000E4B984204D11C20FFF792FF2120EBE7C7
:101B40000B4B98420BD14220FFF78AFF4220FFF750
:101B5000D9FE084A136923F0F0031361DEE76FF042
:101B60001000DCE700200440003004400040044046
:101B700000501440006C1040204B984237D003F5C1
:101B80008053984233D003F5805398422FD003F509
:101B9000801303F5805398422DD11A6802F4403225
:101BA000B2F5803F25D01A6812F4403F0ED14FF0B5
:101BB00080429169082201F003018A4010490868B7
:101BC000B0FBF2F01B69B0FBF3F070471A6802F447
:101BD0004032B2F5003F07D01A6802F44032B2F545
:101BE000403F08D10748EDE74FF48030EAE700F0C6
:101BF000CDB8054870476FF00200704700200440E0
:101C0000100001200071020020BCBE003A4B984237
:101C100010B504466CD003F58053984268D003F5A4
:101C20008053984264D003F5801303F580539842A3
:101C300008D105206061052A04D8DFE802F0062AF1
:101C4000030330486FF0020010BD1A681A604FF0AD
:101C500080420820926902F003029040274A1268ED
:101C6000B2FBF0F2B2FBF1F001FB102210B1B2EBCB
:101C7000510F00D9013018612148FFF77DFF00287E
:101C8000E2DD236843F40043236023681B03FCD593
:101C9000DAE71A6842F480321A601A4AE2E71A68F0
:101CA00042F400321A601A68B1F5166F42F400125D
:101CB0001A600AD900225A614FF48030B0FBF1F06B
:101CC00001FB00F2C2F58032D0E70122F3E71A6887
:101CD00042F440321A601A68B1F5166F42F40012ED
:101CE0001A6003D900225A61074ABBE70122FAE7CA
:101CF000204600F00BF8C2E700200440100001204D
:101D00000050144020BCBE0000710200052310B436
:101D10004361032A2FD8DFE802F002121825184B7E
:101D20001B685B08B3FBF1F201FB123312B1B3EB9A
:101D3000510F00D90132026110BCFFF71DBF0368CB
:101D400043F4803303600F4BECE704684FF4E10287
:101D5000B2FBF1F201FB02F3C3F5E10344F40034FA
:101D60000460E3E7084B0468B3FBF1F244F4403449
:101D700001FB1233F4E76FF0020010BC704700BFA4
:101D80001000012020BCBE000048E801036803F4F5
:101D90004033B3F5803F18D0036813F4403F06D1B9
:101DA0000E4B1B685B080069B3FBF0F070470368DB
:101DB00003F44033B3F5003F09D0036803F4403324
:101DC000B3F5403F06D1064BEDE7064BEBE74FF48A
:101DD000E103E8E76FF00200704700BF1000012048
:101DE0000048E80120BCBE0030B4042B039C07DC93
:101DF000054D2D68B4EB550F02D830BC00F03CB84F
:101E00006FF0020030BC70471000012010B504468E
:101E100000F0A6F80A4B9C4204D10620FFF772FDA1
:101E2000002010BD074B9C4201D10720F6E7064B6E
:101E30009C4201D10820F1E76FF00300F1E700BFF9
:101E4000006004400070044000800440084B984249
:101E500007D003F58053984203D003F5805398428E
:101E600003D1044B1868400870476FF002007047B8
:101E700000600440100001202DE9F8431D46354B59
:101E8000DDF820909842044690460BD003F580532D
:101E9000984240D003F5805398423ED06FF0020044
:101EA000BDE8F88300272C4E28227A43B01800237F
:101EB000B3500122C0E90323C0E9073383606FF008
:101EC0000103C0E90533254B80F8272062602361B8
:101ED000636821B343F0020363600999204603F06D
:101EE00074FCB9F1FF0FD9D8E36843EA0943E36012
:101EF000236A2362282303FB076696F827302BB159
:101F0000012D0FD1636843F480336360B8F1000F93
:101F10001AD10020C4E70127C5E70227C3E723F051
:101F20000203D9E7022D03D1636843F44033ECE7A1
:101F3000032D03D1636843F4E023E6E7042DE5D1E4
:101F4000636843F47023E0E7E36843F40053E3601D
:101F5000DFE700BF00600440B80801200101010074
:101F6000274B98422DE9F041044645D003F58053B4
:101F7000984243D0234EB0420CBF02264FF0FF36AA
:101F800000236362236A236263681F4D23F0010309
:101F90006360E3692827774323F04013E36155F832
:101FA0000780E819B8F1000F08D003F09CF9EB594D
:101FB0005B6A1BB16FF00E014046984700236360D7
:101FC000A360E3602361282404FB065460699842FF
:101FD00004DBFFF773FD6FF001036361282303FB4C
:101FE0000655A869002804DBFFF768FD6FF00103C0
:101FF000AB610020BDE8F0810026C1E70126BFE704
:102000000060044000800440B808012038B51A4B35
:102010001B68B1EB530F04460D462AD8FFF716FF95
:10202000B0FBF5F14B08CA074CBF5A1C1A460021F9
:102030000F2A08DD082902D10F231A4605E05210A5
:102040005B100131F4E70829F6D06069DBB220F0BB
:10205000FF0003436361636923F47F4343EA022380
:102060006361636923F4702343EA014363610020E1
:1020700038BD6FF00200FBE710000120012910B508
:1020800036D0102934DC1D4B98422DD003F58053F7
:1020900098422BD003F5805398420CBF02234FF097
:1020A000FF33026BD20726D4154A282404FB0323EE
:1020B000DA68012A1FD1426822F001024260996069
:1020C000C36810291FBF090201F4706123F4706313
:1020D00019430ABF23F47063C160C360436843F0CF
:1020E00001034360002010BD0023DAE70123D8E795
:1020F0006FF00200F7E76FF00600F4E700600440BD
:10210000B8080120032910B52ADC43689B072AD5AB
:10211000164B984213D003F58053984211D003F523
:10212000805398420CBF02234FF0FF33104A2824FB
:1021300004FB032393F827302BB9002010BD0023A4
:10214000F4E70123F2E742684FF4803303FA01F128
:102150000A434260436861F4702119404160ECE732
:102160006FF00200EAE76FF00600E7E70060044066
:10217000B80801200D4B984214D003F580539842C3
:1021800012D003F58053984214BF4FF0FF30022065
:10219000074B2822003902FB003318BF012183F8C6
:1021A000271070470020F3E70120F1E700600440AA
:1021B000B80801202DE9F047064600AF0C4600297B
:1021C00036D0E9468AB0D1E90012A3686D462148AD
:1021D000A8464FF0050AC5E90501C5E9072348F8F7
:1021E00010AF1D48424600234FF42151FEF7E0FF97
:1021F000CD46D4E903126369AD461848C5F810A06E
:10220000C5E90501C5E907231348002342464FF4F9
:102210002151FEF7CDFFCD46E369114A0E48012159
:1022200002F0A8FFA3690F4A0B48012102F0A2FFA8
:10223000012E07D1EFF305830B4A0748103B3146C7
:1022400002F098FF2146304601F098F9BD46BDE8FE
:10225000F08700BF8C6C0010C0670010BB6C0010D2
:10226000EA6C0010F96C0010276D001030BFFFF70A
:10227000FDBF00BF2DE9F0410B4EDFF8308006EBCB
:102280000807CC1B054632460949204604F051F8A0
:10229000A01942460021083C04F059F86C6607F189
:1022A0000800BDE8F08100BF00000000040000004D
:1022B000E8670010074A936893F90E10002907DBBE
:1022C000526993421FBF044A536843F080535360DE
:1022D000704700BF7C09012000ED00E070B52A4C7A
:1022E00006460D4629482A4903F03BFBA36ADB0654
:1022F00047D52648274903F034FB1120A36A1C0761
:1023000004D52248244903F02CFB12201E4CA36A5A
:10231000990712D521491D4803F023FB636BA26A7C
:10232000120609D51E4A1948012102F023FF1EB1E9
:10233000A36A23F08003A3621320134CA36ADE0771
:1023400004D51248174903F00CFB1420A36A9C061D
:1023500004D50E48144903F004FB15200A4B9A6A71
:10236000D10658BF9A6A9A6A920642BF5A6A22F404
:1023700000525A629A6A42F0FF029A6200232B705E
:1023800070BD1020BAE700BF00ED00E0C06700108C
:102390003A6D0010506D0010836D0010966D0010A6
:1023A000AE6D0010C46D0010E36D001010B5204C30
:1023B0002049214803F0D5FAA36A990136D51E4871
:1023C0001E4903F0CEFA1E20A36ADA0104D51A488A
:1023D0001B4903F0C6FA1F20154CA36A1B0304D542
:1023E0001548184903F0BDFA2120A36A590304D502
:1023F0001148154903F0B5FA22200D4CA36A9A033F
:1024000004D50D48114903F0ACFA2320A36ADB037D
:1024100004D509480E4903F0A4FA2420044A936A1B
:102420006FEA03436FEA1343936210BD1D20CBE7AD
:1024300000ED00E0126E0010C06700102A6E001060
:102440003D6E0010576E0010756E00109A6E0010F1
:10245000B46E001070B5294C06460D46284829492F
:1024600003F07FFAA36AD9043CD52548264903F036
:1024700078FA1720A36A1A0504D52148234903F0E6
:1024800070FA18201D4CA36A9B0512D51C482049E0
:1024900003F067FAA36BA26A100409D51D4A184815
:1024A000012102F067FE1EB1A36A23F40043A36278
:1024B0001920124CA36A590504D51148164903F096
:1024C00050FA1A20A36ADA050ED50D48134903F015
:1024D00048FA1B20094A936A43F47F43936200231E
:1024E0002B7070BD1620C5E7A36A9B04F2D5044883
:1024F0000B4903F036FA1C20ECE700BF00ED00E0CA
:10250000C0670010DF6E0010F56E0010836D0010C4
:10251000066F00101F6F0010346F00104F6F001017
:10252000E36D00102DE9F041654B8AB0D3F80480CB
:1025300000AF0446C8F30805002686F31188BFF3F0
:102540006F8F02F07F43B3F17F4F07D102F00C038E
:10255000082B12D15B495C4803F003FA002634468D
:102560000023FB71EB1E092B00F28980DFE803F0EA
:102570000A7F827C87878787878510074CBF0C4638
:102580000126EDE7514950484D4D03F0EAF900238B
:10259000FB71EB6A9A0705D54D494B4803F0E1F909
:1025A000002332E0EB6A002B01DA4A49F5E7EB6AD7
:1025B0005B00F5D54849444803F0D3F96B69A2693B
:1025C00043F480736B61BFF34F8FBFF36F8F6B6901
:1025D00032F8022C23F480736B61BFF34F8FBFF38B
:1025E0006F8F4DF602739A4208D0AB6ADBB273B3B9
:1025F000F91D0120FFF772FE034606E02368374A03
:102600003148012102F0B6FD2368FA79DAB907F101
:10261000080504F1200C206861682A4603C20834CA
:1026200064451546F7D17A6A002E44D0C2F30801FA
:1026300021B96FEA52226FEA42227A6207F1080159
:102640001846FFF7B7FD2837BD46BDE8F081AB6AF5
:1026500013F47F4F04D0F91D0120FFF7FBFECBE7F9
:10266000AB6AB3F5803F9BD3FFF7A0FEC4E7F91D2B
:102670000020BFE7F91D0020EFE719498DE7194A4F
:10268000194B18F4F87FE8468AB018BF13466A461B
:102690001649C2E905134FF400731384103D144B1F
:1026A000D56142F8103F084800234FF41151FEF75E
:1026B0007FFDC54674E722F4FF7222F00102BCE7F9
:1026C00000ED00E0956F0010C0670010C06F0010B3
:1026D000D76F0010F86F0010067000102570001002
:1026E000417000107C6F0010676F00106570001063
:1026F00004000001044B5A6942F010025A615A6901
:1027000022F008025A61704700ED00E0EFF3088004
:10271000EFF3098101B57246FFF704FF01BD00BF69
:10272000202080F3118808484FF40061401880F39E
:102730000988EFF314800221084380F31488BFF363
:102740006F8F00F0A1F80000B80C0120084B9B68C7
:1027500083420BD1EFF3058343B1064B5A6842F035
:1027600080525A605A6A22F400425A6203F019BD3C
:102770007C09012000ED00E0094A93686FF00A012E
:10278000D966084998664B6843F080534B60002334
:1027900083F31188BFF36F8F9368D86E704700BFC3
:1027A0007C09012000ED00E0EFF31183202383F387
:1027B0001288BFF36F8F094A53699360084A4FF03C
:1027C00000615160074A596E116000219A6E996646
:1027D00082F31188BFF36F8F704700BF7C0901201F
:1027E00000ED00E0300901200B498A684FF030000D
:1027F0001044EFF3098C80E8F01F74467046FFF731
:10280000D3FFA64604498A6802F1300090E8F01F21
:102810008CF30988704700007C0901201EF0040F2A
:102820000CBFEFF30880EFF30980816911F8021CF7
:102830000229FFD001B503F089F801BD40B200289C
:1028400007DB044A4109012300F01F00834042F8DE
:102850002130704700E100E040B20028A8BF00F13D
:10286000604001F10101B8BF064B4FEA4111ACBF16
:1028700000F5614000F00F00C9B2B4BF195480F8F0
:102880000013704714ED00E00F4A08B50F4B22F01B
:102890007F029A60BFF34F8FBFF36F8FD3F888200A
:1028A00022F47002C3F88820EFF3148323F00403AA
:1028B00083F31488BFF36F8F00F04CFF01F0E4FB4B
:1028C00000F048F800F086FF0000001000ED00E086
:1028D00042F8203C009B42F81C3C0A49019B42F80C
:1028E000183C029B42F8143C21F001014FF0807328
:1028F00042F8043C42F8081C0023203A0265836633
:10290000704700BF450C001000B50B4B98600B4B97
:102910000E46416E196015462C4686F309884FF025
:102920000000074B984720464FF000014FF000028F
:102930004FF00003034C20477C090120300901209F
:1029400073590010450C0010014B10221A6170479A
:1029500000ED00E0044800232021C2180133642B5D
:1029600082F80013F9D1704700E100E008B5EFF3F9
:102970000583064A103B02EBC30152F83300496855
:102980008847BDE80840FFF795BC00BF70640010A1
:1029900008B5024B1B689847002008BD3409012088
:1029A000034B044A1860937843F002039370704716
:1029B0003409012018000120F0B587B007460E4603
:1029C00014460021102268461D4603F0C0FC022375
:1029D0008DF802302A46054B019321466846CDE921
:1029E000047601F099FD07B0F0BD00BFA3590010B7
:1029F00008B50649064821F00701C1F1005202F569
:102A0000003202F012F8002008BD00BFFF190120BB
:102A1000380901208B68072B17D8DFE803F01B0467
:102A2000070A0C0F11130023002011E04FF4E103FB
:102A3000FAE7094BF8E74FF40043F5E7074BF3E7F4
:102A4000074BF1E74FF46123EEE700236FF0150029
:102A500013607047034BE7E70048E8018038010046
:102A60000087930380F0FA0208B5074803F07BFA69
:102A700038B10648FFF794FF0448FEF7DDF8002060
:102A800008BD6FF01200FBE720640010912A0010CF
:102A90000A2838B5074D044604D1AB680D215B68A0
:102AA00028469847AB6803485B68E1B298472046E0
:102AB00038BD00BF2064001010B54168886860B15F
:102AC000836810311B689847044620B1044A0548C2
:102AD000012102F046FB204610BD0446FBE700BF83
:102AE00092700010A06700102DE9F0432E4F85B0C2
:102AF000054600EBC1064FF00108B54201D10020A8
:102B00000CE055F8083BC3F3031255F8044C57F892
:102B10002210C3F3072921B96FF0150005B0BDE8F5
:102B2000F083A0075ABFC4F380025200012208FAC2
:102B300009F98DF80D20E207CDE9011925D4200708
:102B400025D403F00F0301338DF80C3004F4C06377
:102B5000B3F5806FC4F300121BD0B3F5C06F1AD069
:102B6000A3F500714B424B4101A88DF80E208DF862
:102B70000F3002F041FD98B92207BED5A306019897
:102B800049460AD502F06FFDB7E70023DCE70123D1
:102B9000DAE70223E8E70323E6E702F066FDACE7A5
:102BA0006FF08500BAE700BFF0680010F7B5456820
:102BB00006462F68A86803F0D6F948B9224A234888
:102BC000012102F0CEFA6FF01204204603B0F0BDEE
:102BD0003846FEF799FF04460028F6D1A8688368B6
:102BE00005F10C011B689847044628B1184A17489C
:102BF000012102F0B6FAE8E7014601AA686803F08D
:102C000037F8041EE1DB019B002219791868FFF7F1
:102C10006BFF04460028D8D105F11801304603F0B7
:102C2000D9F804460028D0D10121384602F02BFC07
:102C300004460028C9D15021384602F028FC2B6AEE
:102C400030469847C1E700BFD2700010D06700102F
:102C5000F17000102DE9F04F87B002AF984643683D
:102C6000BB608B880469F8600D469904164600F134
:102C7000AD804FF0FF324FF0FF3304F1100000F051
:102C800033FE6560FB685B68D3F80090FB68D3F89F
:102C900010A0DAF800309D422BD0AB8813F001026F
:102CA00040F0A480C3F3803329680093012301918D
:102CB00048461946FFF798F8002840F09780AB88FF
:102CC0009A07C3F3800140F18A80002900F08C80CC
:102CD0000321484602F081FD002840F08780A98842
:102CE0004846C1F3451102F072FD00287ED1CAF8B2
:102CF0000050E9468AB002AA4B4B53614B4BC2F8D5
:102D00002080C2E9063601235362062342F8103FB1
:102D1000474800234FF44451FEF74AFACD46002EAF
:102D200074D166630023A36304F1480204F13801FF
:102D300004F1340003F0BDF806466064B8F1000FFA
:102D40006AD1C4F83C800023236404F1500204F1EA
:102D5000400104F13C0003F0ACF84FF00008C7F864
:102D600004D090B00146E064D4E90DA9D4E90FEC99
:102D7000A06C236DC4F8308002AADFF8B8B0C2F8A6
:102D800014B0DFF8A8B093630B23C2E906BAC2E916
:102D9000089EC2E90AC6C2E90C0142F8103F244865
:102DA00043464FF4B241FEF703FAAB68D7F804D0BC
:102DB000002B41D0BB684146186802F020FD206816
:102DC000002840F037814FF0000A44E0A369002B4F
:102DD0007FF44FAF63689D427FF44BAF52E7002909
:102DE0003FF477AF022174E7012172E723689B88E3
:102DF00013F4005304D1636004F1100000F050FD9F
:102E00006FF004001437BD46BDE8F08F336863638C
:102E1000002B87D0736886E7D8F80030E363002B77
:102E200091D0D8F804308FE725710010337200106C
:102E3000C867001046710010BB680121186802F0D5
:102E4000DEFCBB681A68536823F4907343F4807304
:102E500053604FF0010AFB68D3F804B01D69DBF83A
:102E6000000002F0C6FC2A68AE6CB2F804902B6D2C
:102E7000C9F34519B9F1080F94BF4FF000094FF09D
:102E80000109002E40F0E3801E466B6C6B66EB6C14
:102E900026FA09F1E9662967002B00F0DF80AB66AE
:102EA000DBF80030AB650023D188E965C5E91D3347
:102EB0002B66DBF80080D8F804309B0702D540462B
:102EC00002F089FCAB6E002B00F0CD802A6F002A47
:102ED00000F0C980D8F808309BB243EA0243C8F832
:102EE0000830D8F81C3043F48003C8F81C30D8F8F8
:102EF0000830EA6E1B0C1B04002A00F0BE8092B260
:102F00001343C8F80830D8F81C3043F04003C8F821
:102F10001C30D8F81C3043F08013C8F81C30D8F8A7
:102F2000043043F00103C8F80430404602F065FC69
:102F3000DBF80080404602F05CFC404602F057FCA3
:102F4000EB6E03FA09FB2B6F03FA09F905F1800315
:102F50007B606B6FBBEB030217D0696E002940F0FA
:102F60009380022A796828BF0222404602F03BFC87
:102F70006B6F18446867D8F8043098065EBFD8F8BD
:102F8000043043F02003C8F80430AB6F994509D9E9
:102F9000A96EA9EB03021944404602F020FCAB6F76
:102FA0000344AB676B6F9B45D3D8AB6F9945D0D8C3
:102FB000404602F020FC0105FAD5404602F01DFC17
:102FC000AB6C33B1B34261D2664A6748012102F06B
:102FD000C8F82B6D3BB1B34280F08680614A6248ED
:102FE000012102F0BEF8A36C002B7FF434AF236DF7
:102FF000002B7FF430AFBAF1000F40F0A3802368BC
:1030000063B19A6852B19A88D20407D4186902F061
:103010009BFF20685146083002F05EFF23689B88C2
:1030200013F4005304D1636004F1100000F038FC85
:103030000020E7E68368002B3FF4C5AE012108308D
:1030400002F04AFF2368186902F07EFFBBE6002BFE
:103050003FF41BAF9E4228BF1E4616E705F18001D4
:10306000A9662B671CE7D8F808309BB2C8F808306F
:10307000D8F81C3023F4800337E7C8F80830D8F8B4
:103080001C3023F0400342E719446EE79B1BAB64FE
:1030900023BB6B6B08336B63AB6B013BAB6305F11D
:1030A000480205F1380105F1340002F002FF6864BE
:1030B000E8468AB0D5E9111302AA2C4850612C4881
:1030C00013620523C2E9060142F8103F2648002397
:1030D0004FF42451FEF76CF8C5467AE76B6C002B71
:1030E000E6D033446B64E3E79B1B2B6523BBEB6BA0
:1030F0000833EB632B6C013B2B6405F1500205F1A7
:10310000400105F13C0002F0D4FEE864D5E9131358
:103110006D468AB002AA174850611748136205230A
:10312000C2E9060142F8103F0F4800234FF4245132
:10313000FEF73EF8AD4656E7EB6C002BE6D0334485
:10314000EB64E3E7BB681A68536823F4907323F0D9
:1031500001035360BB681A68536843F0010353606E
:103160005CE700BF99710010C8670010B7710010CC
:103170001D720010CD710010077200102DE9F0478C
:1031800082B046680469D6F8008000AF0546B06892
:1031900002F0E9FE28B96FF012000837BD46BDE81D
:1031A000F0874046FEF732FEB068836806F10C01F6
:1031B0001B6898470028F0D101463A1D706802F05C
:1031C00057FD0028E9DB7B68002219791868FFF7B2
:1031D0008BFC0028E1D1A6684FF00108D4E9023247
:1031E00003EBC2039E4205D32046656502F088FECC
:1031F0000020D2E7306802F0B6FE0346B0B932686C
:10320000317910686C468AB06A46194DD1614FF425
:10321000007111841749C2E9055042F8101F164881
:103220004FF41151FDF7C4FFA546B4E7306831797A
:10323000F388D0F810E0D0F808A0DEF800C0DA0774
:1032400054BF43F4B01383F4D01323F4801208FA6C
:1032500001F9DB074CBF4CEA09032CEA0903CEF85D
:103260000030DAF800309847002896DB0836B5E7DA
:10327000E371001004000001C867001010B54FF0A2
:10328000E0230F499C691A6908689B690D4902F49B
:10329000803234B993B903464AB90A681044C01A57
:1032A00010BD002B08BF03460AB9A342F5D90A682E
:1032B00002440A604FF0E0221269EEE70446F3E7A9
:1032C00078090120740901200A4B202283F8232069
:1032D000094B42F210721A60084B002018604FF040
:1032E000E02342F20F725A6198611A6942F00702B4
:1032F0001A61704700ED00E078090120740901208F
:10330000684620F007018D4619B5FFF7B7FF114B4E
:103310001149D3E900420868001942F10002C3E9EB
:1033200000020E4A00230B60D2E9004142F2107302
:10333000001BB0FBF3F043431B1941F10001C2E94C
:10334000003100F07BFFFEF7B5FFBDE81940854670
:10335000704700BF50060120740901204806012073
:103360002DE9F041DFF8DC8099B1421C0BD14FF020
:10337000E022136923F0010313614FF07F43C8F883
:103380000030BDE8F081D8F80060012807DC002794
:103390000BE0431CD8F80060F7D140F28C6040F29B
:1033A0008D639842A8BF1846471EEFF3118520236E
:1033B00083F31288BFF36F8FFFF760FF224C4FF04B
:1033C000E0239969D4E90023801843F10003C4E99C
:1033D00000031E4B00221A601D4B1A68831A2ED45C
:1033E00042F2107C0CFB073303F51C530F33B3FB85
:1033F000FCF7131A0CFB0733B3F5806F154A38BF7F
:103400004FF48063934228BF13464FF0E022C8F880
:103410000030013B90695361002393618142A1EB2D
:103420000003D4E9001238BF9B195B1842F1000277
:10343000C4E9003285F31188BFF36F8FA1E74FF421
:103440008063E2E778090120500601207409012019
:1034500048060120C0BCFF0038B5EFF311852023DA
:1034600083F31288BFF36F8F084B1C68084B1B68EF
:10347000E41AFFF703FF85F31188BFF36F8F42F261
:1034800010732044B0FBF3F038BD00BF500601209C
:103490004806012038B5EFF31185202383F3128805
:1034A000BFF36F8F044B1C68FFF7E8FE85F31188AC
:1034B000BFF36F8F204438BD500601202DE9F0473F
:1034C00043688AB00446186802F04DFD00283DD0DC
:1034D0004FF005090DF10706CDE908691D4B029370
:1034E0006168CDF81C90482302AF06AD4FF0010A89
:1034F0008DF80C3006970495CDF814A051F8040B04
:10350000836804AAD3F800800023C0478046642063
:1035100002F01AFDCDE90679CDE90869CDE9045A32
:103520000022616802928DF80C2051F8040B836828
:103530001C6804ABA047084800F0B0FF4FF47A7055
:1035400002F002FD40460AB0BDE8F0876FF01208B5
:10355000F8E700BF006E003B7172001010B5044622
:10356000FDF742FD0348044A012101F0FAFD20461F
:1035700002F004FDC06700108D7200102DE9F843C1
:10358000044600AF0D46EFF31188202383F3128821
:10359000BFF36F8F0428294A98BF294B9668117C86
:1035A00094BF53F82030274BE9468AB06A46264834
:1035B000C2E9073140F201339384244BC2E9050488
:1035C00042F8103F224800234FF43151FDF7F0FD3F
:1035D000CD4645B1EB69C3F3080323B11D4A1C482E
:1035E000012101F0BEFD2EB1304602F00CFD08B104
:1035F000037803B91848E9468AB06A46174BD06188
:10360000C2E9053640F201331384154B42F8103FEE
:1036100000230F484FF41151FDF7CAFD2946CD464E
:103620002046FFF79BFF88F31188BFF36F8F30466A
:10363000FFF78CF8BD46BDE8F88300BF7C09012088
:10364000546A00109C720010B27200100500000154
:10365000C0670010DA720010AA720010FB7200102E
:103660000400000138B5094B53F82040013053F8ED
:103670002050A54200D838BD636823B1204602F02F
:1036800085FC0834F5E723689847FAE7686A001074
:1036900070B52B4B2B4C2C4D012286B003201A7099
:1036A000FFF7E0FF00F0F4FE02F08CFC0420FFF7CF
:1036B000D9FF2646AE4204F1300410D300F040FB9F
:1036C000204C224EAC4226D300F04EFBFCF7F2FE1B
:1036D0001F4A137B23F00103137306B070BD54F827
:1036E0000C3C059354F8103C049354F8143C039399
:1036F00054F8183C029354F81C3C019354F8203CB5
:10370000009354E90A2354E90C0100F013F954F82A
:10371000303C5E65CDE7D4E90A23B3F1FF3F08BF33
:10372000B2F1FF3F05D052EA0301206803D102F055
:103730006CFC3034C6E73146183000F005FDF8E780
:10374000AF090120906700109067001039610010E8
:10375000C806012008B50348034A0021121A02F0E6
:103760002DFC08BD98010120B409012070B5144E4C
:10377000144D1549702386B003FB00660122002317
:10378000CDE904230F22CDE902320193142303FB78
:1037900000554FF4A072044602FB00110B4B00953C
:1037A000304600F0C7F8737B2C7423F00403737366
:1037B000074BEE60013403EBC4236B6006B070BDB1
:1037C000580601207C090120B8140120C75F0010B1
:1037D000B80C0120BFB50020FFF744FF284B83F34E
:1037E0000888284C284E6369284F43F400736361AE
:1037F0000025E02384F82230E57725766576A576E6
:10380000636A43F4E0236362FEF774FFFFF79CF8FA
:103810004FF0FF33A362E362FDF758FB1C4BB3602C
:1038200040F201129A811D6602F09CFB0120FFF715
:1038300019FF0220174CFFF715FF00F0D1FA164BC5
:1038400074610593012315490095CDE903534FF4A5
:1038500080623B46CDE90155204600F06BF8627B63
:10386000064622F004022046627302F00AFC284653
:10387000FFF77CFF3A4631462046FFF745F800BF88
:10388000B814012000ED00E07C0901209136001001
:1038900038070120C80601205D730010F8150120CB
:1038A00038B50446EFF31185202383F31288BFF364
:1038B0006F8F02F05BFC48B10022C26602F0E1FBB0
:1038C00029460848BDE8384000F0F6B9D4E902328C
:1038D0009A4218BF0133A36085F31188BFF36F8F3D
:1038E00038BD00BFB009012013B5EFF311812024CA
:1038F00084F31288BFF36F8F846844B1013C846005
:1039000081F31188BFF36F8F002002B010BD52EA1F
:10391000030406D181F31188BFF36F8F6FF00F009E
:10392000F3E7CDE900230246014800F099F9ECE7FE
:10393000B00901202DE9F04784B004AF984600F1AA
:103940005803C0E916333B6B0373042343730732F8
:10395000FB6A8373002522F00703EA468EB0C0E9B4
:10396000065504460E468560C57301EB030904AA9B
:10397000194951611949C2F83090C2E90803C2E9F6
:103980000A630923C2E9061642F8103F14482B4681
:103990004FF49241FDF70CFC4946D5462046FEF710
:1039A00069FCBB6A02937B6A0193073020F0070031
:1039B0003B6A0093A9EB000943464A46314620463C
:1039C000FEF786FF074B65659B6803B11B6E236698
:1039D0004846BD46BDE8F08765730010B673001019
:1039E000C06700107C090120F0B587B0002505955F
:1039F000109D04950F9D03950E9D0295DDE91276AD
:103A00000D9D01950C9D00950446FFF793FFB6F1BF
:103A1000FF3F08BFB7F1FF3F05D056EA070305D1C6
:103A2000204600F05BF9204607B0F0BD03493A4656
:103A3000334604F1180000F087FBF4E73961001009
:103A400038B50D4D2B4653F8184F9C4200D004B9A1
:103A5000EC68AB6838B95A7BD20604D1A26912B9B6
:103A6000DA897F2A05D89C4202D0204600F0B4FAB9
:103A700023466B6138BD00BF7C09012008B590F971
:103A80000D20437B002A014604DA03F07F034373D1
:103A900002F0BDFA044B9868431A58425841BDE8F9
:103AA0000840FFF7CDBF00BF7C09012070B490F93A
:103AB0000D30427B002B29DBD30627D183692BBB3A
:103AC000134962F07F0242730A4652F8184F94423B
:103AD00018BF2346CC6923B9C0E900242060C8611F
:103AE0000CE090F90E5093F90E60B5420AD0AE4248
:103AF00008DD5A68C0E900321060586070BC0020D0
:103B0000FFF79EBF9C42E7D01B68E4E770BC70479C
:103B10007C0901202DE9F041002A427B0E460CBFB2
:103B200010210821114204460FD141EA0203D209B3
:103B300018D1437308291BD00120FFF781FFBFF381
:103B40005F8F637B23F060036373264B9B68A34204
:103B500041D1EFF30583002B3DD13046BDE8F04164
:103B6000FEF70ABE03F07F03437302F050FAE1E769
:103B7000A36813B1204602F052FA04F1180002F0D3
:103B800032FBA56D04F15807AF4211D04FF0000889
:103B900075B1284602F043FA05F1180002F023FB44
:103BA000C5F86C802846FFF781FFA56DAF42EFD1C5
:103BB0000C4DAB689C42BFD1EFF30583002BBBD00B
:103BC0000120FFF73DFF084BAB6040F201129A81E4
:103BD00000221A66B3E786F31188BFF36F8FBDE842
:103BE000F08100BF7C0901203807012070B590F9F1
:103BF0000D20437B002A014604DA03F07F03437360
:103C000002F005FA4B7B154A63F07F0310464B73B5
:103C100050F8183FD469834208BF002323B9C1E993
:103C200000042160D1610CE091F90E5093F90E600F
:103C3000B5420ED0AE420CDD5868C1E900300160DB
:103C400059609068431A5842BDE870405841FFF7E8
:103C5000F7BE9C42E3D01B68E0E700BF7C0901206F
:103C6000F8B5124B0C461146114A98681060DDE910
:103C70000676EFF31182202282F31288BFF36F8F52
:103C80009D68284602F0D5F9B6F1FF3F08BFB7F1AD
:103C9000FF3F06D007493A46334605F1180000F0C9
:103CA00053FA2046BDE8F840FEF766BD7C090120C6
:103CB0009C0901203961001049B9EFF3058030B942
:103CC000054B5A699B689A4201D0FEF755BD81F3B6
:103CD0001188BFF36F8F70477C09012010B5EFF397
:103CE0001184202282F31288BFF36F8F427B510729
:103CF00004D484F31188BFF36F8F10BD22F0040247
:103D00004273FFF7D3FE21460248BDE81040FFF79B
:103D1000D3BF00BFB0090120034648B9EFF30582C5
:103D200032B9064A51699268914201D0FEF724BD2A
:103D300083F31188BFF36F8F704700BF7C090120A8
:103D4000EFF31181202383F31288BFF36F8F054BAC
:103D50009A68D37B013BD37381F31188BFF36F8FD4
:103D6000704700BF7C090120F8B500AFEFF3118662
:103D7000202484F31288BFF36F8F154DAA68D37B7C
:103D80000133D3730020FFF75BFE86F31188BFF386
:103D90006F8FAB686D468AB0D97B6A460D4850611B
:103DA0000D481162C2E90603052342F8103F0B4893
:103DB00000234FF42451FDF7FBF9AD46EFF31180DA
:103DC00084F31288BFF36F8FFFF7A6FFBD46F8BDDF
:103DD0007C090120C973001011740010C067001025
:103DE000024B03F11802C3E9062270477C09012047
:103DF000F8B5EFF31185202383F31288BFF36F8F9B
:103E000019498868437B03F07F03437302F0FFF88E
:103E10008B685A7B084662F07F025A7350F8182F5D
:103E2000CC69824208BF002222B9C3E900042360A2
:103E3000CB610CE093F90E6092F90E70BE420ED089
:103E4000B7420CDD5168C3E900210B6053600120CB
:103E5000FFF7F6FD2846BDE8F840FEF78DBCA2420C
:103E6000E3D01268E0E700BF7C0901202DE9F843A8
:103E7000DFF8A88000AF6C468AB0D8F80830054655
:103E80000E466A462649516126491062C2E9061368
:103E9000052342F8103F002323484FF42451FDF737
:103EA00087F955EA0603A54603D1FFF7A1FF0020D5
:103EB0002DE0AB1C76F1FF332CDB02F0A9F92C18B6
:103EC000EFF31189202383F31288BFF36F8F174B11
:103ED000D8F808001860FFF7D1FDD8F80800144999
:103EE0002A463346183000F02FF9D8F80820537BC3
:103EF00043F0100353734846FEF73EFC02F088F986
:103F0000201A63EB0303012873F10003CFDBBD46E6
:103F1000BDE8F8836FF00104641BD1E77C09012040
:103F2000E873001004740010C06700109C090120A1
:103F300039610010B1F1FF3F08BFB0F1FF3F08B594
:103F400006D10A4B986802F0ABF84FF0FF3008BD7D
:103F5000FFF78CFFC11709304FF00A024FF0000342
:103F600041F10001FCF734F9F1E700BF7C090120C1
:103F7000014B9868704700BF7C090120044BC01AB0
:103F8000044BC0105843044B01221A54704700BF21
:103F9000A8070120ABAAAAAAB0090120C3897F2BD8
:103FA00012D80A4B1B6863B1094B90F90E201B68AD
:103FB0009A4209DB437BDB0606D1064BC31A18BFC6
:103FC000012303F0010070470023FAE7A409012050
:103FD000A00901205806012070B50E4B0E4C1E7C26
:103FE00006EB460304EBC3040546204602F0FBF84B
:103FF0000A4B002228469A55FFF7D0FF48B1084BDC
:1040000008491A68013A2046D317BDE8704000F00D
:104010009BB870BD7C090120A8070120B0090120D0
:10402000A40901207D3F001038B5EFF3118520234E
:1040300083F31288BFF36F8F104B114A9C6810688E
:10404000A04206D1FFF7C8FF85F31188BFF36F8F39
:1040500038BD00211B7C11600A4AD35C002BF3D0D1
:104060002046FFF79BFF0028EED0637BDB0602D1E2
:104070002046FFF7BBFD2046E4E700BF7C09012096
:104080009C090120B009012008B50648064A0749E5
:10409000121A01F095FFBDE80840054A0549064897
:1040A00001F08EBF00000120940101206C7400100B
:1040B000000000006C74001000000120034B1B681E
:1040C0000BB9FFF7C9B90020704700BFA80901204C
:1040D00030B570B10B4B5B6898420AD0036843B1AE
:1040E000D3E90421D0E90445121941EB0501C3E9E4
:1040F0000421D0E9003213605A600023C0E9003384
:1041000030BD00BF3001012010B50E4B1C689C4231
:1041100004D1FFF7D3FF6FF0004010BDFFF7CEFFD3
:10412000002CF8D0D4E904321B1A62EBE072B3F130
:10413000004F72F10001EEDA002AACBF18460020F1
:10414000EBE700BF30010120B3F1FF3F08BFB2F140
:10415000FF3FF8B504461D4616465ED08160EFF37A
:104160001187202383F31288BFF36F8F013275F11B
:10417000FF3324DA2E49D1E900206FF001039B1AA6
:104180004FF0FF3262EB00009E1B60EB0500012E3A
:1041900070F1000301DA01260020C4E90460254E15
:1041A000D6F800C07568B44508BF4FF0000CBCF1EC
:1041B000000F0DD1C4E900652C6074601CE0FFF7AE
:1041C0007DFF013645F10005361845EBE070E4E768
:1041D000DCE90420D4E90431934271EB000E1DDACE
:1041E000D21ADCF8043060EB0100CCE90420C4E909
:1041F00000C31C60CCF804403368B34209D09C4231
:1042000007D10D4B1C6824B9FFF77EFF2146FFF74D
:10421000A7F887F31188BFF36F8FF8BD9B1A61EB86
:104220000001AC45C4E90431C4D0DCF800C0BEE7ED
:10423000C007012030010120A80901202DE9F84F15
:10424000EFF3118C202383F31288BFF36F8FDFF815
:10425000B0A0DFF8B0902C4FC9F80000DAF80000E9
:104260000024504508BF00200025D7E90021D9F8D7
:104270000030E04678B3D0E9046C4FEAE37EB34205
:104280007EEB0C0B05DAF61A6CEB0E04C0E9046445
:1042900021E0B21841EBE671C0E90445C7E900210D
:1042A000FFF716FF88F31188BFF36F8F8368984775
:1042B000EFF31188202383F31288BFF36F8FD9F8AF
:1042C0000030DAF800009B1B5045C446C9F80030A6
:1042D000CBD1D7E900219A1841EBE3730024C7E959
:1042E0000023C9F80040FFF70FFF2146FFF738F819
:1042F00088F31188BFF36F8FBDE8F84FFFF794BEC6
:1043000030010120A8090120C007012010B5EFF3FA
:104310001184202383F31288BFF36F8FFFF7CEFE43
:10432000054A0346D2E90001181841EBE37184F312
:104330001188BFF36F8F10BDC0070120F8B5044688
:10434000EFF31187202383F31288BFF36F8F026886
:1043500022B187F31188BFF36F8FF8BDD0E90A3619
:10436000581C46F10001022871F1000127D3012BEE
:1043700076F10001BCBF012316465D1E46F1FF36F3
:1043800001F04AFF013041F10001401946EB010103
:10439000012871F1000139DB01F03EFF013041F1EC
:1043A00000016FF00102401946EB0103121A4FF0B1
:1043B000FF3161EB030318492046FFF7C5FE236B6D
:1043C00001332363236A6BB187F31188BFF36F8FC7
:1043D000236A20469847EFF31187202383F312883E
:1043E000BFF36F8F54F8185FA542B2D0002DB0D044
:1043F000284601F06FFE0023EB6687F31188BFF3B8
:104400006F8F2846BDE8F84001F03BBE6FF0010217
:104410004FF0FF33CFE700BF3D4300102DE9F041DF
:1044200005461C4690461F46EFF31186202383F372
:104430001288BFF36F8FB4F1FF3F08BFB2F1FF3FA7
:1044400005D186F31188BFF36F8FBDE8F081531C4F
:1044500074F1FF3309DB012A74F10003BCBF0122B0
:10446000002412F1FF3844F1FF37284601F0BBFE6B
:10447000DDE906010023C5E90A012B630349424631
:104480003B462846FFF760FEDBE700BF3D430010D8
:10449000014800F05FBB00BF207400100FB407B5E7
:1044A000064B04AA186852F8041B019200F034F875
:1044B00003B05DF804EB04B0704700BF74680010EF
:1044C0000CB430B589B005460C461C22002101A869
:1044D00001F03DFF02238DF806300E4B0293059547
:1044E00023462CB1B4F1004F28BF4FF00043013BED
:1044F0001D440DAA0C99069501A8009200F00CF835
:1045000014B1059B00221A7009B0BDE8304002B01A
:10451000704700BF5F6300102DE9F04F8DB0436816
:104520000293837815469A07804640F10D81002456
:104530000E78002E00F00A81252E0BD04B1C039321
:104540000134029B4146304698470028C0F2F6806D
:104550000399EDE74E788B1C252E0393F0D00027AE
:10456000B946BB46BBF11F0F38D8A6F12003102B6C
:104570000AD8DFE803F02A090930090909210909E5
:104580000928092D09091F00A6F13003092B33D989
:104590002A2E37D11BF0400F55F8043B40F08280A3
:1045A000002BA7BF4BF0200B9946C3F100094BF03D
:1045B000280B01E04BF0010B039B13F8016B0393F5
:1045C000002ECFD130E04BF0020B4BF0040BF3E7A1
:1045D0004BF0080BF0E74BF0100BEDE7BBF17F0F52
:1045E00019D8A6F13003092BD2D81BF0400F03D005
:1045F0000A2101FB0737DFE70A2101FB09394BF0EC
:10460000200BD9E72E2E06D11BF0400F40F09E80E4
:104610004BF0400BD0E76C2E31D02BD8682E36D023
:104620006A2E3CD04C2E3AD0002F46F02003B8BF63
:104630002BF04002A3F16501BCBF1FFA82FB0027EB
:10464000022901D9612B2FD1073525F00705DFF8A5
:10465000ACA2083507271BF0080F66D00AEB070B42
:1046600056465E4563D1A4EB0A0A06EB0A02A9EBA3
:1046700007096FE1742E9FD07A2E9DD0D4E71BF0EE
:10468000800F18BF4BF4007B4BF0800B94E71BF4BA
:10469000807F18BF4BF4007B4BF4807B8CE74BF49E
:1046A000207B89E71F4687E7A6F16301122900F204
:1046B000F080DFE811F013004F00EE00EE00EE0096
:1046C000EE004F00EE00EE00EE00EE00EE00FE0009
:1046D000E900EE00EE001B00EE00AF0055F8043BD1
:1046E0008DF8183001270DF1180AB4E755F804AB1E
:1046F000834BBAF1000F08BF9A461BF0400F14BF5E
:1047000039464FF0FF31504601F0B0FD0746A2E7B1
:10471000029B41462020984700280FDB013EB7420C
:10472000F6D34C44A41BB14698E74E46F7E716F87B
:10473000010B029B41469847002892DA98F8023014
:1047400043F0040388F802304FF0FF3420460DB0E8
:10475000BDE8F08F1BF0800F34D01BF4007F2CD00D
:10476000073525F00705AA4669685AF8080B2BF0AB
:1047700010050029ADB237DA404261EB410145F442
:1047800080650DF1180B0A235A4601F07BFDA0EB62
:104790000B0301936B0662D5019B25F001019F423B
:1047A00089B240F3A180002E00F0998015F010022C
:1047B00040F09C80BB460D4623E0AA465AF8040B05
:1047C000C117D4E7AA461BF4807F5AF8041B01D115
:1047D0000846F5E71BF4007F15BF48B208B241F365
:1047E000C01141F3C031C2E750EA0103C9D11BF047
:1047F000400FC6D0002FC4D12BF0110295B2BB469A
:10480000019740F2064115EA01021CBF0BF1010BB2
:1048100000222CE02BF010021FFA82FB0A231BF06F
:10482000800C49D01BF400711DBF073525F007052A
:10483000AA46AA461ABF5AF8080B69685AF8040B28
:1048400050EA010545D12BF016051BF0400FADB223
:1048500042D0002F40D12BF0170295B2019715F0EE
:10486000100248D0019B002E42D103F1010B290711
:104870005AD4EB0706D5D9456FDD0199A9EB0B0397
:104880005F18CB465B4649E04BF0100B10237826AF
:10489000C5E7782B04D1C6F1780343F01003BEE7D7
:1048A000029B4146252098470028FFF647AF023477
:1048B00047E608230026B2E7AA461BF480715AF89F
:1048C000040BBDD01BF400711ABFC0B2614680B2A8
:1048D000B6E72BF0060295B20DF1180B54E725F060
:1048E0001105ADB2BB468CE70D46B8E73B460D4619
:1048F00003F1020BBBE7DDF804B082E7627400103D
:104900005B740010CDE904324146029B2020984799
:104910000028FFF613AF049B059A01339945F1DC9B
:10492000A4EB0B01CC189B460AB3029B41463020F6
:1049300098470028FFF602AF8EB901342744019B47
:10494000391B994224DC1D465DBB019AA9EB0B097A
:10495000224455461446914435E0019F92E70234C3
:1049600041463046029B98470028E7DAE6E640F2E7
:1049700006410D42E2D015F0020F14BF2B2020207B
:1049800015F4806F04F10104414618BF2D20E9E7BA
:10499000029B414630209847002804F10104CEDAFA
:1049A000CCE606AB013D4146585D029B9847002886
:1049B000CADAC3E6029B414620209847002804F14A
:1049C0000104FFF6BBAEA9EB0403002BF2DCBFE54C
:1049D000704700EBC100408840087047F8B50346B7
:1049E000FFF7F7FFB0FA80F0C0F11F0003EB800C77
:1049F000CA00DCF81060171D0C4606328DB256B99D
:104A0000012101FA00F0D9680143D960CCF81040C7
:104A1000DD539D52F8BDF1000431585AD85303EBD1
:104A2000C0009E52C5805D52F4E7043A2DE9F04182
:104A3000CC1D114424F0070421F007010E1BF708D8
:104A4000B7FA87F2C2F12405AD004FF00008073530
:104A5000C2F12002ED0804604146A760C4F80C8052
:104A6000920004F1100001F072FC6B0043F00103AE
:104A7000638004EBC5027B1B5900A4F800805180C1
:104A8000A21924F83550A2F80280A35304EBC703FF
:104A900029465A8842F001025A802046BDE8F0417A
:104AA000FFF79CBF2DE9F04706460D46174698468E
:104AB0002BB398F8004093F80190DB78A40004EB46
:104AC000430498F802301C4444444FF0000ACA459D
:104AD00009D3D8F8042008F1080339463046AC461B
:104AE000BDE8F047604714F8013B48F823402046F2
:104AF000FBF7D8FC013004440AF1010AE7E76FF044
:104B00001500BDE8F08770B500250246284614461A
:104B100014F8013B0BB9184609E098B18D4207D152
:104B2000702B04D0A3F140023A2A0BD8002070BDAC
:104B3000A3F140063A2E05D853780135941C002B7A
:104B4000E9D00020252B08BF80F001002246DEE7D7
:104B5000002070470FB407B504A951F8040B019168
:104B600000F086FA03B05DF804EB04B0704710B5AE
:104B70000369024613F0080009D11368D4689C4207
:104B800097BF126AE31AD31A01200B6010BD0023ED
:104B90001846FAE713B501A90446FFF7E8FF20B16C
:104BA000019BE268013B13440193206A019BC01AF8
:104BB000013802B010BD10B5044650182269236AAE
:104BC000D20702D5013B184010BD984228BFC01A39
:104BD000FAE710B504460A46C168FFF7ECFF2369FF
:104BE000E06023F00803236110BD38B50D46C269AB
:104BF0008B00016843F0020342F82130044601684B
:104C00002A46FFF7D8FFE36861682060984202BF38
:104C1000236943F0080323612A462046FFF7CBFFB0
:104C2000606038BD2DE9F74FC768C6699B4616F826
:104C3000273003F00303022B04468846914606EB17
:104C4000870A4FF0000309D01360CBF800302369C6
:104C5000990710D4002003B0BDE8F08F56F8271054
:104C600013608908CBF80030F1D0FFF7B2FFE3689A
:104C7000A3600120EFE7A3695046984716F8273054
:104C8000DA070546E6D513F002031DD0B8F1000F90
:104C900003D041462046FFF7A8FF61682A46204618
:104CA000FFF789FFD4E902319942606004D12A46B6
:104CB0002046FFF780FFA060A3682360E3602369BC
:104CC00043F008032361D4E7014620460193FFF730
:104CD00080FFE268A260B8F1000F04D02168E269A9
:104CE000019B42F8213005EB0802CBF80020216837
:104CF0002046FFF760FF2369206043F0080323612B
:104D000016F827306FF3000306F82730C9F800A023
:104D1000AFE770B504461546FFF74DFF23688342A1
:104D200005D12369216023F00803236170BDE26986
:104D3000AB0043F0020342F82130204661682A4666
:104D4000FFF739FF6060F1E738B503695B07044698
:104D500006D5456AFFF71EFF85422CBF656260627B
:104D600038BD38B50D4604461C22002101F0EFFA8B
:104D7000EB68A361AB6863612B68E3616B682362D6
:104D8000002262622A6923B1591E194208BF42F00B
:104D900001022261012204F128000021BDE838400F
:104DA00001F01CB92DE9F04F87B000250093036A8C
:104DB00003958B4204460E4692460595A94639D383
:104DC000EFF3118B202383F31288BFF36F8F059AC3
:104DD000D8462AB129462046FFF79BFF00230593BA
:104DE00004A92046FFF7C3FE0499B14207462AD31F
:104DF0002268E36913F8221021F0030103F822105E
:104E000003EB8209216832462046FFF7D4FEE368AF
:104E10002060984212D0002788F31188BFF36F8F6B
:104E2000039929B162690AB1204690470023039390
:104E3000002FC5D1484607B0BDE8F08F236943F085
:104E400008032361E7E718B12046FFF7CEFEE3E74A
:104E5000009B5AEA030319D0019101F0CBF80199A4
:104E6000A0B98BF31188BFF36F8F009B524604F1FA
:104E70002800FEF739FDEFF31188202383F3128811
:104E8000BFF36F8FB0FA80F77F09C5E705AB03AAC0
:104E900020462568FFF7C6FE0746BDE770B5044605
:104EA000836908460D4698470246EFF31186202392
:104EB00083F31288BFF36F8F2B7843F001032B70BD
:104EC00061682046FFF777FE60602046FFF73CFFF1
:104ED00086F31188BFF36F8F70BD2DE9F041044652
:104EE0002027EFF3118687F31288BFF36F8F2369B2
:104EF00013F0080FA36802D16268934200D9226AB6
:104F0000E169D21A32B986F31188BFF36F8F4FF07F
:104F1000000833E011F8232012F0030001EB8308AE
:104F2000F1D0022803D151F82350AD0805D1D007A4
:104F300012D4A369404698470546A1682A462046F0
:104F4000FFF739FE2946A0602046FFF742FE86F3B0
:104F50001188BFF36F8FC4E742F0020201F82320EB
:104F60004046A369A5689847294602462046FFF7B0
:104F700022FEA06086F31188BFF36F8F4046BDE824
:104F8000F081F8B50446836908460D469847064601
:104F9000EFF31187202383F31288BFF36F8F2B78F1
:104FA0006FF300032B7023699B0705D5E268E36963
:104FB00003EB82039D421AD12B786FF341032B70D0
:104FC000D4E90231994204D132462046FFF7F3FD7D
:104FD000A06031462046FFF7FCFD87F31188BFF340
:104FE0006F8F04F12800BDE8F840FEF759BC2B682C
:104FF00060F39F032B60F0E702698368120702D415
:1050000042689A4200D2026AD31A181E18BF0120C1
:105010007047704708B5FCF789FB002008BD0020E9
:10502000704703785B075FBF03684288C3F34A2376
:1050300003EB12105DBF173020F00700800800203E
:105040007047002070470346BFF35B8F53E8000FA3
:10505000421C43E800210029F8D1BFF35B8F704761
:1050600008B501F0D9F80A220023FBF7B1F808BD12
:105070001FB50023CDE90201CDE900331A461946D8
:105080001846FCF719F905B05DF804FB0120FBF7A1
:10509000C3BE0020704770B5D2E901369B1B8B421E
:1050A0000C4615460AD313680A460146981901F0C2
:1050B00040F9AB682344AB60204670BD6FF01B0025
:1050C000FBE770B50E4615461946044618B9BDE80B
:1050D0007040FBF7A1BE33B1C2F34A231030120D6A
:1050E000184401F026F9C4E900562046BDE8704096
:1050F000FCF72AB82DE9F3415F1C4FEA8708064602
:1051000008F1170020F0070080080C461546FBF751
:10511000F7FE0023ADF805308DF807308DF80470E8
:1051200068B10346019A43F8102FA8F104012A46FA
:10513000294452F8045B43F8045F8A42F9D1A20182
:1051400002F4E07242EA482222F07F4222F4700226
:10515000002322F03F02314602B0BDE8F041FFF7E4
:10516000B0BF07B50123019201AAFFF7C3FF03B047
:105170005DF804FB07B5CDE9002302236A46FFF77B
:10518000B9FF03B05DF804FBF8B506460D461446BA
:105190001F4604B9F8BD214628463A46B047241AAE
:1051A0000544F6E710B5426881680446D2E9002359
:1051B0000068FFF7E9FF636800221A6010BD38B588
:1051C0004B681A68CB689A4205460C4602D10846DD
:1051D000FFF7E8FF6368BFF35B8F53E8002F511CB4
:1051E00043E800100028F8D1BFF35B8FA3689D54FB
:1051F000002038BD0A2838B504460D4602D10D20DE
:10520000FFF7DDFF29462046FFF7D9FF002038BD14
:105210002DE9F043054687B008460E8891F80090C6
:10522000D1F808800C461746FCF796F8011EC6F325
:105230008216C9F3C2091EDB4846FBF797FF0346F7
:105240002146608851F8102B0196C2F34A22002AA9
:1052500001EB0204C0F30B1008BF00210022CDE9CE
:105260000407CDE90214009241462846FCF7A0F855
:1052700007B0BDE8F0830023E2E743681B685B6882
:1052800000201961704743681B681A6852685360B0
:10529000704743681B685A68012111751868FFF749
:1052A00081BF43681B681868FCF7ECB970B54368A8
:1052B0001D686B6818690C46FBF78AFD214603469A
:1052C0000F222868BDE870401847034653E8002FB6
:1052D00032B943E800100028F8D1BFF35F8F704760
:1052E0006FF005007047BFF35F8F002303607047C6
:1052F00038B54FF0804302389D68052800F28D8054
:10530000DFE800F0556B032C72429A68140318D53D
:105310004FF08042936823F4606343F4006393602A
:105320004FF40050FCF73AFB0446002872D04FF0CF
:10533000804205F46065936823F460632B439360B7
:1053400009E09A6842F400229A604FF00060FCF78E
:1053500025FB0028DCD06FF0090426E09A68D00213
:1053600007D54FF08042936823F4606343F42063D1
:10537000D5E79A6842F480129A604FF08050FCF7AB
:105380000DFB0028EDD0E6E74FF00040FCF706FBF0
:1053900028B94FF08042936843F46063BFE7072069
:1053A000FCF71CFB04460028F3D0204638BD9A6861
:1053B000D10307D54FF08042936823F4606343F430
:1053C0008063ACE79A6842F480329A604FF0807054
:1053D000FCF7E4FA0028EDD0BDE79A6822F4606299
:1053E00042F4C0629A609BE79A68920307D54FF037
:1053F0008042936823F4606343F440638FE79A68C4
:1054000042F400329A604FF00070FCF7C7FA0028AF
:10541000EDD0A0E7FCF798F9C7E76FF00204C4E706
:105420004FF08042936803F4E073984208D0936889
:1054300000F4E07023F4E07303439360FCF784B955
:10544000704738B504460D46204600F01AF800288B
:10545000FAD029462046BDE8384000F00AB800F0EE
:105460001EB800F02AB800F038B800F06EB800F0AE
:1054700074B800F079B8FFF7E4BF00F07EB800F030
:1054800089B800F094B800F098B800F0A3B800F024
:10549000A3B800F0A4B800F0A7B800F0ABB8053985
:1054A00003299FBF036823F4406343EA8123036019
:1054B00094BF00206FF00200704721B1012908D08D
:1054C0006FF002007047036823F4805303600020EC
:1054D0007047036843F48053F8E7042932D8DFE8C3
:1054E00001F0030915212900036823F0100303606C
:1054F00000207047036843F010030360036823F043
:1055000020030360036823F04003F0E7036843F0DF
:1055100010030360036823F020030360036843F073
:105520004003E4E7036843F010030360036843F0BB
:105530002003E6E7036843F010030360036843F0C9
:105540002003EAE76FF002007047436813F0030F8F
:1055500014BF6FF00500002070474368DB0654BF9E
:10556000006A6FF00C0070470246406810F080003F
:105570000CBF11626FF00B00704710B5034600209E
:10558000904200D110BD5C68E406FBD41C6A0C5448
:105590000130F5E710B503460020904200D110BD60
:1055A0005C682406FBD40C5C1C620130F5E74068A3
:1055B000C0F30330C0F1080070474B1E072B9FBF9C
:1055C000036823F00F031943016094BF00206FF0BC
:1055D00002007047C0687047C16000207047836850
:1055E0000B43836000207047836823EA01038360D4
:1055F000002070474068704738B5D0E90052017A02
:105600000446284600F090F850BB637A012B10D076
:10561000022B19D013BB2B6E626823EA02032B66A0
:10562000237AEBB16268E17A2846BDE8384000F0A1
:10563000A6B82B6E626813432B66D5F8B830626843
:105640001343C5F8B830EBE72B6E626813432B6643
:10565000D5F8B830626823EA0203F2E76FF002007F
:1056600038BD00F012B800F013B800F013B800F025
:1056700013B800F017B800F019B800F04DB800F0FA
:105680004DB800F04DB800F04DB8406A0840704782
:10569000C16170470162704783695A400A405A40AD
:1056A0008261704783694B408361704703680429B6
:1056B0002FD8DFE801F0130326212A00DA6A4168B7
:1056C0000A43DA62DA6D416822EA0102DA659A6A0F
:1056D000416822EA01029A6200207047DA6A416852
:1056E00022EA0102DA62DA6D416822EA0102DA6531
:1056F0009A6A41680A43EEE7DA6A416822EA0102DF
:10570000DFE7DA6A41680A43ECE7DA6D41680A4389
:10571000EDE76FF00200704781637047C163704727
:1057200081647047006C7047036B134303634260EE
:10573000052921D8DFE801F0030B0D13181C426185
:1057400042600267C267C0F888200020704702618B
:10575000F6E7C0F88820C26702678260F5E7C0F804
:105760008820C267C266F8E7C0F888208267F3E73E
:10577000C0F888208267F5E76FF0020070470329C0
:105780001ED8DFE801F01D020C19D0F8B030134329
:10579000C0F8B030D0F8B43023EA020308E0D0F803
:1057A000B03023EA0203C0F8B030D0F8B43013436D
:1057B000C0F8B43000207047D0F8B0301343F2E79F
:1057C000D0F8B03023EA0203E2E7FCF71FBCFCF795
:1057D00055BC00F016B8FCF795BC00F01BB800F003
:1057E00039B800F06BB800F06DB800F09AB800F06E
:1057F0009EB800F0A1B800F0A4B800F0A4B8FCF77F
:10580000B9BCC36813F4706F1ABFC068C0F303203B
:105810001020704703290BD8DFE801F0020C1018A4
:10582000C36823F00103C360C36823F00203C360AD
:1058300000207047C36843F00103F4E7C36823F016
:105840000103C360C36843F00203F0E7C36843F099
:105850000103F6E7F8B5074614460E4661B3CAB130
:10586000FFF7BFFF05463846FFF7B3FFA54228BF45
:105870002546082888BF25F00105002455B10828D1
:1058800015D9032D08D9043D3A683251012D04F190
:10589000040407D12046F8BD012DFBD03B883353CB
:1058A0000234F7E7002DF5D0032DECD8F6E73A786F
:1058B0003255013D0134E1E70C46EBE7C069C0F326
:1058C00005607047F8B5074614460E4639B372B105
:1058D000FFF78BFF05463846FFF77BFFA54228BF41
:1058E0002546082888BF25F0010500240DB920466B
:1058F000F8BD08280ED9032D04D932593A60043D69
:105900000434F3E7012D00D1FEE7325B3A80023D1B
:105910000234EBE7325D3A70013D0134E6E70C46B4
:10592000E5E7C069C0F30520C0F120007047C369F6
:1059300043F40003C3617047C36943F08003C3614C
:105940007047006A7047036A036270470146006847
:10595000FCF730BC08B5FCF789FCBDE80840FCF753
:10596000A9BC0A460121FFF7FCBB00210120FCF77E
:1059700021BC61B662B680F31188BFF36F8F7047A8
:1059800008B572B6002383F31188BFF36F8FFFF75A
:1059900046FB10B1BFF34F8F30BF62B6BFF36F8FBE
:1059A00008BD08B5D1E904319847002008BD08B505
:1059B000FCF7EEFF002008BD08B50B68012B07D0EF
:1059C000022B09D05BB90879FBF79CFF002008BDCA
:1059D00048682030C0B2F7E748684030FAE76FF017
:1059E0001500F4E708B50B68012B07D0022B09D08E
:1059F0005BB90879FBF7A2FF002008BD486820309A
:105A0000C0B2F7E748684030FAE76FF01500F4E7F6
:105A100008B50420FBF7E2FF0420FFF769FC002033
:105A2000FFF7FEFC002008BD10B503695868F8B107
:105A3000884219D19C6808685860A14200D19860DA
:105A4000002008602AB15A680A609A68596002B951
:105A50009960002010E0814206D1086820609868B3
:105A60008142EDD19C60EBE7044600680028F2D14A
:105A7000002AE8D16FF0150010BD1FB544686068BA
:105A80000190012000FA01F1B2F5001F02910ED140
:105A90006068FFF7F4FD64682046FFF7F4FD0299A3
:105AA00001402046FFF7EDFD002004B010BDB2F527
:105AB000800F05D0B2F1A07F1CD06FF01500F4E785
:105AC000B3F1007F02D1032101A80AE0B3F1806F96
:105AD00001D10146F8E7B3F1C06FEED104210DEB1F
