:020000041000EA
:10000000201E0120E54A001025BC0010D14A001036
:10001000D14A0010D14A0010D14A0010000000005F
:10002000000000000000000000000000794C0010FB
:10003000D14A001000000000454C0010155C001073
:10004000BD4E0010BD4E0010BD4E0010BD4E001044
:10005000BD4E0010BD4E0010BD4E0010BD4E001034
:10006000BD4E0010BD4E0010BD4E0010BD4E001024
:10007000BD4E0010BD4E0010BD4E0010BD4E001014
:10008000BD4E0010BD4E0010BD4E0010BD4E001004
:10009000BD4E0010BD4E0010BD4E0010BD4E0010F4
:1000A000BD4E0010BD4E0010BD4E0010BD4E0010E4
:1000B000BD4E0010BD4E0010BD4E0010BD4E0010D4
:1000C000BD4E0010BD4E0010BD4E0010BD4E0010C4
:1000D000BD4E0010BD4E0010BD4E0010BD4E0010B4
:1000E000BD4E0010BD4E0010BD4E0010BD4E0010A4
:1000F000BD4E0010BD4E0010BD4E0010BD4E001094
:10010000BD4E0010BD4E0010BD4E0010BD4E001083
:10011000BD4E0010BD4E0010BD4E0010BD4E001073
:10012000BD4E0010BD4E0010BD4E0010BD4E001063
:10013000BD4E0010BD4E0010BD4E0010BD4E001053
:10014000BD4E0010BD4E0010BD4E0010BD4E001043
:10015000BD4E0010BD4E0010BD4E0010BD4E001033
:10016000BD4E0010BD4E0010BD4E0010BD4E001023
:10017000BD4E0010BD4E0010BD4E0010BD4E001013
:10018000BD4E0010BD4E0010BD4E0010BD4E001003
:10019000BD4E0010BD4E0010BD4E0010BD4E0010F3
:1001A000BD4E0010BD4E0010BD4E0010BD4E0010E3
:1001B000BD4E0010BD4E0010BD4E0010BD4E0010D3
:1001C000BD4E0010BD4E0010BD4E0010BD4E0010C3
:1001D00053B94AB9002908BF00281CBF4FF0FF31AE
:1001E0004FF0FF3000F00CB8ADF1080C6DE904CE13
:1001F00000F008F8DDF804E0DDE9022304B0704700
:10020000704700BF2DE9F04786468C460846089E99
:10021000154674461946002B40F0C2808542B2FA5A
:1002200082F245D94AB1C2F1200300FA02FC2EFA4B
:1002300003F3954043EA0C0C94404FEA154EA8B2E4
:10024000BCFBFEF8230C0EFB18CC08FB00F943EABC
:100250000C43994528D9EB1808F1FF3704D299458A
:1002600002D9A8F102072B44A3EB0903A4B2B3FB04
:10027000FEFC0EFB1C330CFB00F044EA0344A042DE
:1002800014D92C190CF1FF3304D2A04202D9ACF1DD
:1002900002032C44241A43EA07401EB1D440002331
:1002A00034607360BDE8F0874746DDE76346F1E7F9
:1002B00092BB431B01214FEA154EAFB2B3FBFEFCCC
:1002C000200C0EFB1C330CFB07F840EA0343984557
:1002D00062D9EB180CF1FF3004D2984502D9ACF189
:1002E00002002B44A3EB0803A4B2B3FBFEFC0EFBFD
:1002F0001C330CFB07F744EA0344A7424ED92C19E0
:100300000CF1FF3304D2A74202D9ACF102032C4412
:10031000E41B43EA0040C0E7C2F1200320FA03F1E6
:10032000954090402EFA03F303434FEA154EAFB2C7
:10033000B1FBFEFC0EFB1C10190C0CFB07F841EA8C
:100340000041884504FA02F422D969180CF1FF3003
:1003500004D2884502D9ACF102002944A1EB08017E
:100360009BB2B1FBFEFC0EFB1C110CFB07F743EA32
:1003700001439F420ED9EB180CF1FF3104D29F428A
:1003800002D9ACF102012B44DB1B41EA004192E7A8
:100390006046E3E76146F7E76046A3E76346B7E7F1
:1003A000834206D916B9002108467BE7C6E900E07A
:1003B000F9E7B3FA83F78FB9834201D3724508D8BE
:1003C000BEEB020460EB030301209C461EB9002132
:1003D00068E73846FAE7C6E9004CF8E7C7F1200CB1
:1003E000BB4022FA0CF41C432EFA0CF120FA0CF359
:1003F000B84001434FEA14490EFA07F5B3FBF9F888
:100400001FFA84FE09FB18300B0C08FB0EFA43EAB6
:1004100000439A4502FA07F240D9E31808F1FF3089
:1004200004D29A4502D9A8F102002344A3EB0A039F
:1004300089B2B3FBF9F809FB183308FB0EFE41EA59
:1004400003418E452CD9611808F1FF3304D28E4543
:1004500002D9A8F10203214443EA0040A0FB02981C
:10046000A1EB0E014145CE46434602D306D14D4590
:1004700004D2B9EB020E68EB04030138002EA6D0BB
:10048000B5EB0E0261EB030101FA0CFC22FA07F353
:100490004CEA0303F940C6E9003198E74046C5E756
:1004A0004346D9E7034613F8012B002AFBD1181A5B
:1004B0000138704780B582B000AF104B7B607B681D
:1004C000002B04D10E4808F0D1F9002311E0786820
:1004D00008F07AFC034683F00103DBB2002B07D05F
:1004E0007B681B681946074808F0AEF9002300E056
:1004F000002318460837BD4680BD00BF70EF0010CE
:10050000FCF2001010F3001080B483B000AF7860EC
:100510007B68094A934205D37B68084A934201D21B
:10052000012300E0002303F00103DBB218460C377F
:10053000BD4680BC704700BF98EE0010BC010110A2
:1005400080B5A4B000AFF860B9607A603B60FB682A
:10055000FB65FB6DC7F88C300023C7F880300023A3
:10056000FB670023BB674FF0FF337B67002387F8EF
:100570006B307B6803F00403002B14BF01230023BE
:1005800087F85B307B68DB0803F0070301337B6689
:10059000002387F86330FB687B65FB6803F0030387
:1005A000002B02D06FF00D039FE3D7F88C3004339B
:1005B000C7F88C30FB6D002B0DD1BB6803F007032F
:1005C000D7F88C201344C7F88C30BB6803F00703BE
:1005D000C3F10803BB60FB6D002B0AD0D7F88C2059
:1005E000FB6DD31A0433BA689A4202D26FF01B0330
:1005F0007BE33B68FB663B68013B3B600423C7F839
:1006000084300423C7F8883097E197F86B3083F083
:100610000103DBB2002B11D03B681B78252B40F087
:100620007882012387F86B307B6F01337B6704236B
:10063000C7F884300423C7F888306AE23B681B7827
:100640007A2B00F349814C2B11DA472B00F34481BC
:100650002A2B71DA252B00F09280252B00F33C81A8
:10066000202B00F05882232B00F0558234E14C3BC4
:100670002E2B00F2318101A252F823F0170B00104B
:10068000D9080010D9080010D9080010D9080010A6
:10069000D9080010D9080010D9080010D908001096
:1006A000D9080010D9080010D9080010B7070010A9
:1006B000D9080010D9080010D9080010D908001076
:1006C000D9080010D9080010D9080010D908001066
:1006D00007080010D9080010B7070010B70700106E
:1006E000070800100708001007080010170B00107B
:1006F000B70700108D070010D9080010170B001065
:10070000D9080010F3070010B7070010F307001016
:10071000D9080010D9080010ED070010A907001033
:10072000B7070010D9080010D9080010B70700104B
:10073000D90800109B0700102A3B012202FA03F39C
:100740004FF6DA721A40002A14BF01220022D2B2F8
:10075000002A40F0E08103F06252002A14BF012217
:100760000022D2B2002A4ED103F00103002B14BFA5
:1007700001230023DBB2002B40F0B280ACE0002369
:1007800087F86B307B6F013B7B67C5E10823C7F8B7
:1007900084300823C7F88830BEE10423C7F88430CA
:1007A0000423C7F88830B7E10423C7F88430042352
:1007B000C7F88830B0E13B68013B1B786C2B11D146
:1007C0003B68023B1B786C2B06D10823C7F88430AA
:1007D0000823C7F8883005E00423C7F884300423D1
:1007E000C7F88830002387F86B307AE0012387F858
:1007F00063300423C7F884300423C7F8883000230B
:1008000087F86B306DE03B68013B1B784C2B13D1B4
:10081000D7F89830073323F0070303F10802C7F82D
:100820009820D3E90023C7E906230823C7F88430BA
:100830000823C7F8883012E0D7F89830073323F040
:10084000070303F10802C7F89820D3E90023C7E99A
:1008500006230823C7F884300823C7F88830D7F860
:100860008C20D7F8843013445A1ED7F88430B2FB5A
:10087000F3F3D7F8842002FB03F3C7F88C30FB6D49
:10088000002B1ED0D7F88C20FB6DD21AD7F88830F9
:100890001344BA689A4202D26FF01B0325E23B6808
:1008A000013B1B784C2B06D1D7E90623D7F88C10D7
:1008B000C1E9002305E0D7E90623D7F88C10C1E988
:1008C0000023D7F88C20D7F888301344C7F88C3031
:1008D000002387F86B301FE1002387F86B301BE1A2
:1008E00000BFD7F88C20D7F8843013445A1ED7F8AD
:1008F0008430B2FBF3F3D7F8842002FB03F3C7F88C
:100900008C30FB6D002B0CD0D7F88C20FB6DD21AED
:10091000D7F888301344BA689A4202D26FF01B03AA
:10092000E3E197F86330002B00F0A080D7F898300F
:100930001A1DC7F898201B68FB66FB6D002B03D0BF
:10094000D7F88C30FA6E1A607B6E5A1E7A66002BCE
:1009500005DCF86E08F0CCFC0346002B01D0012327
:1009600000E0002387F853307B6803F00203002B7C
:1009700014BF0123002387F8523097F85330002B1F
:1009800006D097F8523083F00103DBB2002B64D11C
:10099000D7F88C20FB6DD31A9B08FB6497F8523074
:1009A000002B05D0FB6C7F2B02D96FF015039CE167
:1009B000D7F880300F2B02D96FF0150395E1FB6D4E
:1009C000002B2DD0FB6CD9B207F13002D7F8803064
:1009D00013440A461A707B6FD9B207F12002D7F888
:1009E000803013440A461A7097F85330002B13D006
:1009F00007F13002D7F8803013441B7863F07F038F
:100A0000D9B207F13002D7F8803013440A461A7081
:100A1000BB6F0133BB671BE0FB6F0133FB6717E064
:100A200097F85330002B03D0BB680133BB600FE055
:100A300097F85B30002B03D0BB680233BB6007E044
:100A4000F86EFFF72FFD0246BB6813440233BB600C
:100A5000D7F880300133C7F88030D7F88C300433B2
:100A6000C7F88C30002387F8633055E0D7F888301A
:100A7000042B13D1D7F898301A1DC7F898201B689B
:100A80007B64FB6D002B03D0D7F88C307A6C1A6036
:100A9000D7F88C300433C7F88C303DE0D7F8883075
:100AA000042B13D1D7F898301A1DC7F898201B686B
:100AB000BB64FB6D002B03D0D7F88C30BA6C1A6086
:100AC000D7F88C300433C7F88C3025E0D7F888305D
:100AD000082B1BD1D7F89830073323F0070303F115
:100AE0000802C7F89820D3E90023C7E90423FB6D67
:100AF000002B05D0D7E90423D7F88C10C1E90023D7
:100B0000D7F88C300833C7F88C3005E06FF0150348
:100B1000EBE000BF00E000BF3B6801333B603B6897
:100B20001B78002B7FF471AD00BFD7F88C20FB6DD4
:100B3000D31AB3F5806F02D36FF01503D5E0FB6DC8
:100B4000002B07D1D7F88C20FB6DD21ABB68134459
:100B5000083BCAE0FB6D00221A60D7F88C20FB6DC1
:100B6000D31A9B08DAB27B6D1A7097F85B30002BB2
:100B700007D07B6D00225A70FB6FDAB27B6DDA70A2
:100B800006E0FB6FDAB27B6D5A707B6D0022DA7083
:100B9000BB6FDAB27B6D9A70BB6F002B32D0002333
:100BA0003B672AE007F130023B6F13441B785BB2CE
:100BB000002B1EDA07F130023B6F13441B7803F061
:100BC0007F0387F84330D7F88C20FB6DD31A0133AD
:100BD000BA689A4202D26FF01B0386E0D7F88C30D5
:100BE00097F843201A70D7F88C300133C7F88C304F
:100BF00000E000BF3B6F01333B673A6FD7F88030AE
:100C00009A42CFD300233B6766E0BB6F002B07D02F
:100C100007F130023B6F13441B785BB2002B57DBAC
:100C200097F85B30002B0ED00023C7F88830D7F838
:100C30008C305A1CC7F88C2007F120013A6F0A4407
:100C400012781A701AE007F130023B6F13441B78D8
:100C50009B00FA6D13441B68FB6607F130023B6F83
:100C600013441B789B00FA6D134400221A60F86E3F
:100C7000FFF718FC03460133C7F88830D7F88C20FB
:100C8000FB6DD21AD7F8883013440133BA689A4200
:100C900002D26FF01B0328E007F130023B6F1344D0
:100CA0001A78D7F88C301A70D7F88C300133C7F81F
:100CB0008C30D7F88820F96ED7F88C000EF0C4F885
:100CC000D7F88C20D7F888301344C7F88C3000E070
:100CD00000BF3B6F01333B673A6FD7F880309A42D1
:100CE00093D3D7F88C20FB6DD31A18469037BD46A6
:100CF00080BD00BF80B483B000AF7860034A7B68DA
:100D0000136000BF0C37BD4680BC70470000012057
:100D100080B500AF0EF0B6F80346024A9B5818465D
:100D200080BD00BF0800000080B584B000AFF8604F
:100D3000B9607A603B6008F07DFB02460EF0A2F8D5
:100D4000034606495A50FB683A687968B86898477C
:100D5000FFF7DEFF0346184608F073FB08000000AB
:100D600080B500AF0EF08EF80346024A9B58184635
:100D700080BD00BF0800000080B485B000AF78607F
:100D80007B681B01044A1344FB60FB681846143758
:100D9000BD4680BC704700BFECF2001080B483B049
:100DA00000AF7860044A7B6852F8233018460C374D
:100DB000BD4680BC704700BF98FD001080B590B064
:100DC00002AF2D4809F0EFF878632C4B1B78002B0D
:100DD0002DD02B4B7B62EFF311833B623B6AFB61AF
:100DE0002023BB61BB6983F3128800BFBFF36F8F01
:100DF00000BFFB69BB607B6A7B6100BF7B6A3B61B4
:100E000000BFBB68FB6009F0B4FA1D4B3B63FB6895
:100E10007B607B68FB62FB6ABB62BB6A83F3118801
:100E200000BFBFF36F8F00BF00BF00BF1FE0154BB7
:100E30001B68002B1BD07B6B002B0FD142F2107074
:100E40004FF000014FF000024FF00003CDE9002306
:100E500002460B460C4809F0C4F908E07B6B092BED
:100E600005D1094809F0D0F9084809F0F1F900BFA7
:100E70003837BD4680BD00BF0C0801201C0A012088
:100E80002408012014080120D8010120C4010120F8
:100E900080B500AF084B00221A70084B00221A6080
:100EA000074B00221A604FF47A71064800F086F86A
:100EB00000F01EFA80BD00BF1C0A012010080120AE
:100EC0000C080120BBA3001080B586B000AF03461C
:100ED0000A46FB711346BB7100237B61274809F06A
:100EE00062F80346002B01D0002342E000233B615F
:100EF000234BFB6022E0FB681B7B002B18D0F868BB
:100F000009F0B1F9F86809F0C0F90346002B08D1DF
:100F1000FB685B681B6804221946F86809F07FFBD0
:100F200006E001223B6902FA03F37A6913437B610D
:100F30003B6901333B61FB681033FB60FB68114A7E
:100F4000934234BF01230023DBB2002BD3D1FB79C2
:100F5000002B0DD009E0786909F036FA7861BB7989
:100F6000002B02D00A2009F0B8F87B69002BF2D1DF
:100F70007B6918461837BD4680BD00BF08080120B0
:100F8000ECF20010FCF2001080B582B000AF786087
:100F9000074A7B6813607B68002B06D0054B1B68F3
:100FA000092B02DD044809F053F90837BD4680BD1E
:100FB000140801200C080120C401012080B582B072
:100FC00000AF786039607B68002B02D16FF01503A9
:100FD00009E0074A7B681360064A3B68136038687B
:100FE00000F054FF002318460837BD4680BD00BFFF
:100FF000080001201808012080B582B000AF174B0F
:101000001B78002B26D100210120FFF75DFF144B38
:101010007B600BE0786809F07DF90346002B02D075
:10102000786809F06AF97B6810337B607B680D4A49
:10103000934234BF01230023DBB2002BEAD100BF6F
:1010400009F097F90346002BFAD100BF034B0122A8
:101050001A7000E000BF0837BD4680BD1C0A0120A1
:10106000ECF20010FCF2001080B584B000AF7860A4
:10107000124BFB6013E0F86809F04CF90346002BB3
:101080000AD07968F86809F0DAF90346002B03D032
:101090007968F86809F00EF9FB681033FB60FB68AB
:1010A000074A934234BF01230023DBB2002BE2D175
:1010B00000BF00BF1037BD4680BD00BFECF200107E
:1010C000FCF2001080B582B000AF00F0F5F8386097
:1010D0000E4B7B600CE0786809F01CF90346002B8E
:1010E00003D03968786809F0F4F87B6810337B60C6
:1010F0007B68074A934234BF01230023DBB2002BF5
:10110000E9D100BF00BF0837BD4680BDECF200103A
:10111000FCF2001080B58AB004AF0021154808F039
:101120005CFF03467B610423012B1FD908F06CFF91
:101130000346FB74104B1B68FB600123FB72FB7AB8
:1011400083F00103DBB2002B10D17B6903930B4BBF
:101150000293002301930023009300230222F968E5
:10116000002008F058FF00237B6000BF00BF183745
:10117000BD4680BD1C08012004000120E4F30010DE
:1011800080B500AF074B1B7883F00103DBB2002B67
:1011900002D0054809F05CF8024B01221A7000BF2A
:1011A00080BD00BF1D0A0120C40101202DE9B0430C
:1011B00084B000AF4FF000024FF00003C7E90023F6
:1011C0002A4B1B7883F00103DBB2002B01D00023F4
:1011D00047E03B46184600F0CDF8F860FB68002B6E
:1011E00008D0234808F0ECFEF868FFF73DFFF868E8
:1011F00000F0DAF800F06CF80346FB7209F034F9FD
:101200000346BB72FB7A002B02D1BB7A002B1BD0AA
:1012100008F08FFF02460B4610461946154BD3E9DE
:101220000023841A61EB030540F2E9339C4275F117
:10123000000309D3FB7A002B01D0FFF743FFBB7AF1
:10124000002B01D0FFF766FF0A4BD3E9002312F50C
:101250007A7843F10009074BC3E9008900F0B4F83C
:10126000034618461037BD46BDE8B0831D0A01206D
:101270000C0801201002012080B582B000AF0346A7
:10128000FB71094808F08FFEFB79002B02D007485C
:1012900008F096FE064808F0B7FF064808F0D8FFA9
:1012A00000BF0837BD4680BD100801200C08012092
:1012B000D8010120C401012080B500AF00210348FE
:1012C00008F08BFE0346184680BD00BF10080120C1
:1012D00080B400AF054B1B68002BCCBF012300235B
:1012E000DBB21846BD4680BC704700BF1008012025
:1012F00080B500AF0449054808F0F1F8044B034AF3
:101300001A6000BF80BD00BFA8FD00108801012049
:101310002008012080B582B000AF78607968044869
:1013200009F0A9F8034618460837BD4680BD00BF3E
:101330008801012080B582B000AF7860064B1B6841
:10134000984702467B689A607968044809F0A7F8D4
:1013500000BF0837BD4680BD08000120880101207C
:1013600080B500AF024808F0B2FC0346184680BDC5
:101370008801012080B584B000AF7860074A084B2F
:10138000D31ADB08074AA2FB0323FB60FFF7E8FF41
:10139000034618461037BD4680BD00BFC00101207E
:1013A000880101202549922480B582B000AF786081
:1013B000044B1B687968184609F082F800BF0837AB
:1013C000BD4680BD2008012080B584B000AF002359
:1013D000FB60084A084BD31ADB08084AA2FB032328
:1013E000BB60074809F07AF8034618461037BD4637
:1013F00080BD00BFC0010120880101202549922441
:101400008801012080B584B000AF03463960FB71CC
:101410000C4BFB6008E0FB793A681946F86808F065
:1014200085FFFB681033FB60FB68074A934234BFBB
:1014300001230023DBB2002BEDD100BF00BF10372A
:10144000BD4680BDECF20010FCF2001080B582B009
:1014500000AF7860034808F0FBFE00BF0837BD46C8
:1014600080BD00BFC401012080B58AB000AFF86024
:10147000B9607A604FF0FF33FB610023FB760021F7
:101480000020FFF721FD78627B6A002B06D04FF425
:10149000FA724FF00003C7E9042305E04FF0FF3272
:1014A0004FF0FF33C7E90423002387F82330FFF709
:1014B00057FC03461846FFF767FD7B6A002B0CD0EC
:1014C000786A08F081FF78627B6A002B05D14FF0C3
:1014D000FF324FF0FF33C7E9042308F04AFF034609
:1014E00083F00103DBB2002B10D097F82330002BE0
:1014F00006D0002387F8233000210020FFF782FF69
:10150000D7E90423034808F093FED6E7012387F8C0
:101510002330D2E7C401012080B588B008AF002293
:10152000114912480DF0DFFB4FF000024FF00003AD
:10153000CDE90623002304930E2303930023029393
:101540000023019300230093094B4FF48052094973
:10155000094808F00AFE0949074808F034FE00234C
:101560001846BD4680BD00BF4D140010D8010120B3
:1015700069140010200A0120180601200CF4001044
:1015800080B483B000AF78607B68044A9B1ADB08A4
:1015900018460C37BD4680BC704700BFA4F200104F
:1015A00080B500AF0248FFF7EBFF0346184680BD49
:1015B000ECF2001080B485B000AF78607B681B014E
:1015C000044A1344FB60FB6818461437BD4680BCD0
:1015D000704700BFECF2001080B485B000AF034646
:1015E0003960FB71184BFB601BE0FB689B689B68D4
:1015F000DAB2FB689B681B68DBB21344FB72FA79B2
:10160000FB7A9A420AD2FB689B689B68DBB2FA7944
:10161000D31ADAB23B681A70FB680FE0FB68183324
:10162000FB60FB68094A934234BF01230023DBB20D
:10163000002BDAD13B6800221A70002318461437B9
:10164000BD4680BC704700BFFCF20010FCF20010E9
:1016500080B58AB002AF03463960FB711C4BDB6971
:101660003B61FB793B733B689BB2FB81FB6807F1F5
:1016700014021946164809F009F9034683F00103DC
:10168000DBB2002B1FD007F10B02FB791146184685
:10169000FFF7A2FFF861FB7A18463B689AB27969B6
:1016A00007F1100300930B460146F86908F065FF47
:1016B000B861BB69002B01DA002305E07B6919469C
:1016C000034809F066F97B6918462037BD4680BD9E
:1016D0002408012080B582B000AF786039607B6853
:1016E000DBB2184608F00DFF0346002B0DD07868DA
:1016F00008F071FF02463B68934204D2084A3B68F7
:1017000052F8333008E0002306E07B68DBB239682A
:101710001846FFF79DFF034618460837BD4680BDB3
:10172000A4F2001080B483B000AF78607B68044AF4
:101730009B1ADB0818460C37BD4680BC704700BFBB
:10174000A4F2001080B592B004AFB9607B6003468C
:10175000FB731346BB73BB6C002B0BD0FB6C3B6164
:101760003B690093BB6C7A6C10210020FEF7E8FE09
:10177000786301E000237B637B6BB3F5006F24D3B8
:101780000423012B77D909F016F9034687F827308F
:101790003A4B1B683B620123FB77FB7F83F001031D
:1017A000DBB2002B67D140F2FF730393344B0293FB
:1017B000002301930023009300230222396A0020B2
:1017C00009F000F90023BB6155E07A6B3B6C1344D0
:1017D000173323F0070303339B083B633B7D6FF311
:1017E00000033B753B7D6FF341033B753B7D6FF31E
:1017F00082033B75FB7B03F00703DAB23B7D62F3A8
:10180000C5033B75BB7B03F00703DAB2BB8A62F307
:101810008813BB827B6BC3F30A039AB27B6962F3C2
:1018200053237B613B6CC3F30B039AB2FB8A62F3D5
:101830000F13FB82386BFFF76DFDF862FB6A002B1C
:1018400002D0FB6A103300E00023BB62BB6A002BAE
:101850000BD0BB6C002B08D0796BFB6C0093BB6C7E
:101860007A6CB86AFEF76CFE78637B687A69B9684F
:10187000F86A09F0E9F83837BD4680BD0C00012050
:101880006CF4001080B584B000AFF860B9607A6085
:101890007B68BA680449F86807F04AFD03461846B1
:1018A0001037BD4680BD00BF494F001080B483B0E3
:1018B00000AF78607B680133034A13441B781846F5
:1018C0000C37BD4680BC7047A90001100EB480B52E
:1018D00085B000AF78600023FB6007F12003BB6098
:1018E000BB68FA697968064803F02EFBF860FB686C
:1018F00018461437BD46BDE8804003B0704700BFAE
:1019000003AC001080B594B004AFF860B9607A60A1
:10191000BB6803F04403002B14BF0123002387F8A6
:101920003F3097F83F3083F00103DBB2002B06D045
:101930007A683849F868FFF7C9FFB86365E0364B45
:101940001B68002B5FD0354B1B687A68B2FBF3F342
:101950007B60314B1B687A68B2FBF3F37B637B6B74
:101960003B633B6B2E4AA2FB0323DB0AFB62FB6A51
:101970004FF4616202FB03F33A6BD31A3B633B6B98
:10198000284AA2FB03235B09BB62BA6A13461B0108
:101990009B1A9B001A463B6B9B1A3B631E4B1A68B3
:1019A0007B68B3FBF2F101FB02F29B1A7B627B6A5C
:1019B0004FF47A7203FB02F2174B1B68B2FBF3F38E
:1019C0003B627B6A4FF47A7203FB02F2124B1B6894
:1019D000396A01FB03F3D31A4FF47A7203FB02F264
:1019E0000D4B1B68B2FBF3F3FB61FB6902933B6A8F
:1019F00001933B6B0093BB6AFA6A0B49F868FFF7E7
:101A000065FFB86301E00023BB63BB6B184640373A
:101A1000BD4680BDC4F400104408012048080120E0
:101A2000C5B3A29189888888D0F4001080B586B0AB
:101A300000AFF8607B600B46FB721346BB72FB7A0B
:101A4000002B14D0BB7A002B0AD00B4A7B6852F8CB
:101A50002330002B04D0084A7B6852F8233000E082
:101A6000064B7B617A690649F868FFF72FFF00BFD4
:101A70001837BD4680BD00BFD0FD0010ECF400104B
:101A8000F4F4001080B584B000AF786008461146C9
:101A90001A460346FB700B46BB7013467B7000234F
:101AA000FB60FB78002B0CD0194A7B6A52F823307C
:101AB0001A4618497868FFF709FF0246FB68134485
:101AC000FB60BB69002B08D0BA6913497868FFF73F
:101AD000FDFE0246FB681344FB60FB69002B11D03E
:101AE000BB78002B04D07B6A042B01D10B4B00E0A8
:101AF0000B4BFA6919467868FFF7E8FE0246FB6867
:101B00001344FB60FB6818461037BD4680BD00BF1C
:101B1000BCFD0010F8F4001000F5001004F50010F2
:101B200008F5001080B582B000AF786039603B687E
:101B300003F01003002B0ED13B6803F02003002BB1
:101B400004D007497868FFF7C1FE05E005497868C9
:101B5000FFF7BCFE00E000BF0837BD4680BD00BFF8
:101B600010F5001014F5001080B588B000AFF860D3
:101B7000B9607A603B60B96AF868FFF7D3FF002369
:101B8000FB6106E03749F868FFF7A0FEFB69013307
:101B9000FB61FA693B689A42F4DB0023BB6120E0F9
:101BA000BB69002B08DDBB6903F00703002B03D1E1
:101BB0002C49F868FFF78AFEBB697A689A4209D90E
:101BC000BB69BA6813441B781A462749F868FFF7BF
:101BD0007DFE03E02549F868FFF778FEBB69013315
:101BE000BB61BB690F2BDBDD2149F868FFF76EFE97
:101BF00000237B612DE07B69002B08DD7B6903F00E
:101C00000703002B03D11749F868FFF75FFE7B69D4
:101C10007A689A4216D97B69BA6813441B78FB74B8
:101C2000FB7C1846FFF742FE034603F09703002BA8
:101C300001D0FB7C00E02E231A460E49F868FFF71E
:101C400045FE03E00749F868FFF740FE7B69013372
:101C50007B617B690F2BCEDD00BF00BF2037BD4607
:101C600080BD00BF18F500101CF5001024F5001011
:101C700028F500102CF5001090B58DB004AFF86079
:101C8000B9603B601346FB710023FB61BB6803F046
:101C90000203002B14BF01230023FB76BB6803F073
:101CA0000103002B14BF01230023BB76BB6803F0A4
:101CB0000803002B14BF012300237B760023FB7451
:101CC000BB6803F48073002B14BF012300233B7611
:101CD00008F010FC78617B69002B09D07A691E49F5
:101CE000F868FFF7F3FD03461A46FB691344FB61EE
:101CF000FB7E002B09D03A68B968F868FFF702FE4E
:101D000003461A46FB691344FB6197F83C20BB7EEF
:101D10001946F86808F0E4FFFC7C3B7E002B01D0FC
:101D2000002300E07B6B97F83C20F879797E0392E2
:101D3000BA6B029201933B6B009323460246F8680C
:101D4000FFF7A0FE03461A46FB691344FB61FB69DB
:101D500018462437BD4690BD38F5001080B58CB0CC
:101D600004AFF860B9607A603B6097F82C30002BC4
:101D70000CBF01230023FB75FB7D83F00103DBB265
:101D8000002B12D097F82C300393BB6A02933B6868
:101D900001937B680093BB680022F96BF868FFF73A
:101DA0006BFFF8611A4BBB6108E00023FB613B68E5
:101DB000012B01D1164B00E0164BBB613B6B002B96
:101DC00005D03A6BF968B869FFF75CFD3861BB6B09
:101DD000002B08D0FA69FB6B00931346BA6B796B42
:101DE000F86808F09FFFFB7D83F00103DBB2002B56
:101DF00006D097F82C301A46F96BF86808F0B6FF51
:101E0000F86808F054FF00BF2037BD4680BD00BF12
:101E100003AC001049AC001080B586B000AF78600C
:101E200039607B681B687B613B6842F20F729342AA
:101E300028BF13463B6007F108003B68104A0521A4
:101E400006F034FD38617B685B685B680B220D49E6
:101E5000786908F00EFF3A697B685B685B6807F198
:101E60000801786908F005FF7B685B685B681B22E6
:101E70000549786908F0FDFE00BF1837BD4680BDF2
:101E80004CF50010E4FD0010F0FD001080B483B0AC
:101E900000AF78600B4B01221A6007E07B685B089B
:101EA0007B60084B1B685B00064A13607B68064A30
:101EB0009342F3D8054A7B68136000BF0C37BD46D8
:101EC00080BC70474808012040420F0044080120B0
:101ED00080B588B000AFF860B9607A607B68BB619C
:101EE000BB695B687B61154B3B61386909F00CF895
:101EF0000346002B01DAB9681AE00023FB610AE00F
:101F0000FA68FB6913441B781946386908F0EDFF3D
:101F1000FB690133FB61FA69BB689A42F0D300BFE9
:101F20004FF00A024FF00003386908F0F7FFB96874
:101F30000B4618462037BD4680BD00BF34EF001069
:101F400080B586B000AF78607B685B681B68FB601B
:101F5000064B7B61FB685B683B61FB681B68F9684B
:101F6000184608F076FF1837BD4680BD34EF0010E4
:101F700080B586B000AF78607B685B681B687B616A
:101F80007B695B683B61074BFB603B6901221A750B
:101F90007B691B68184608F07DFF00BF1837BD46F7
:101FA00080BD00BF34EF001080B400AF074B9B68CA
:101FB000064A23F480739360054B1B68044A43F080
:101FC0008053136000BFBD4680BC70470054104072
:101FD0000068104080B485B000AF4FF080439B682C
:101FE00003F46063BB60BB68B3F5606F24D0BB686B
:101FF000B3F5606F34D8BB68B3F5406F2CD0BB68C5
:10200000B3F5406F2CD8BB68B3F5206F20D0BB6808
:10201000B3F5206F24D8BB68B3F5006F15D0BB684B
:10202000B3F5006F1CD8BB68B3F5806F07D0BB68F1
:10203000B3F5C06F06D013E01B4BFB6013E01B4BE6
:10204000FB6010E01A4BFB600DE01A4BFB600AE0EE
:102050004FF4E103FB6006E04FF40043FB6002E055
:10206000144BFB6000BFBB68B3F5006F09D14FF0A4
:1020700080439B689B0B03F00303FA6822FA03F387
:10208000FB604FF080439B689B0903F007037B6074
:10209000FA687B6822FA03F3074A136000BF14371B
:1020A000BD4680BC704700BF20BCBE000048E801B0
:1020B0008038010000E1F505180001202DE9B0434A
:1020C00086B000AF7860364989687961344909681B
:1020D00021F48031334801603149096801F0010180
:1020E000002911D12E496FF07F4048602C496FF0D4
:1020F0007F4088602A49052008606FF07F41796140
:102100004FF08071396103E0254949680131396137
:1021100079680020884681462349096800200A46DC
:10212000034602FB09F008FB03F10144A8FB02454A
:102130004B191D461D4A4FF0000320462946FEF765
:1021400047F802460B461346FB60FA683B69B2FB50
:10215000F3F31A46164B1A60FB683A69B3FBF2F2C6
:10216000396901FB02F29B1ABB60BA687B699A422B
:102170000CD30F4B1B6801330D4A13607A69BB689F
:10218000D21A3B6913440B4A136004E07A69BB68B6
:10219000D31A084A136000BF1837BD46BDE8B083A4
:1021A00010E000E0780801201800012040420F00F4
:1021B0001C0001207408012080B582B000AF786057
:1021C0003960104A3B6813600F4B1B68002B02DD1F
:1021D0006FF0050312E07B68002B01D100230DE0B6
:1021E0007868FFF76BFF084B1B68002B05DD074B7A
:1021F0001B68064A43F002031360002318460837A1
:10220000BD4680BD7C0801201C00012010E000E0DC
:1022100080B500AF164B1B68002B0CDA154B1B6802
:10222000002B06D0134B1B6800209847114B00224F
:102230001A6000231AE00E4B1B68002B14D10E4BC2
:102240009A680E4B1B689A420ED800F019F8094B99
:102250001B68002B06D0074B1B6800209847054BD6
:1022600000221A60002301E06FF00503184680BDCC
:102270001C0001207C08012010E000E0740801200F
:1022800080B500AF0A4B1B68002B07D0084B1B68BA
:102290006FF00F009847064B00221A60054A064B64
:1022A0001B681360054B4FF0FF321A6000BF80BD02
:1022B0007C08012010E000E0780801201C000120CB
:1022C00080B483B000AF0346FB71FB793F2B0DD97F
:1022D000FB79403BFB71174B5B6AFA79012101FAEC
:1022E00002F21146134A0B4353621EE0FB791F2B87
:1022F0000FD9FB79203BFB714FF080439B6CFA793F
:10230000012101FA02F211464FF080420B4393641F
:102310000BE04FF080435B6AFA79012101FA02F287
:1023200011464FF080420B43536200BF0C37BD464D
:1023300080BC7047006C104080B483B000AF03468F
:10234000FB71FB793F2B0ED9FB79403BFB71194B9D
:102350005B6AFA79012101FA02F2D2431146154A69
:102360000B40536220E0FB791F2B10D9FB79203BF7
:10237000FB714FF080439B6CFA79012101FA02F264
:10238000D24311464FF080420B4093640CE04FF073
:1023900080435B6AFA79012101FA02F2D2431146C5
:1023A0004FF080420B40536200BF0C37BD4680BCEB
:1023B000704700BF006C104080B400AF084B1B6832
:1023C000074A23F0004313604FF080439B684FF0AF
:1023D000804243F40033936000BFBD4680BC704729
:1023E0000068104080B584B000AF0346FB71002345
:1023F000FB60FB79023B052B5BD801A252F823F06E
:10240000872400106F2400101924001035240010B8
:10241000A3240010512400104FF080439B684FF01C
:10242000804243F4002393604FF0006000F04CF8CA
:10243000034640E04FF080439B684FF0804243F4F6
:10244000801393604FF0805000F03EF8034632E076
:102450001B4809F055F8F860FB68002B01D0FB68B9
:1024600029E04FF0004000F02FF8034623E0154B21
:102470001B68144A43F0805313604FF0005000F083
:1024800023F8034617E04FF080439B684FF08042EB
:1024900043F4803393604FF0807000F015F80346EA
:1024A00009E0FFF789FF4FF0007000F00DF80346D8
:1024B00001E06FF0020318461037BD4680BD00BF33
:1024C00040FE00100068104080B582B000AF786018
:1024D0007B68B3F1807F04D100211048FFF76CFEC8
:1024E00004E000214FF47A70FFF766FE4FF080435E
:1024F0009A687B681340002B03D0FFF7C1FE0023CE
:1025000007E0FFF785FE034613F1060FEED06FF0EC
:10251000090318460837BD4680BD00BFA0860100EC
:1025200080B584B000AF0346FB710023FB604FF021
:1025300080439B6803F46063BB60FB79023B052B1F
:1025400000F2C48001A252F823F000BF2726001039
:102550006F26001065250010AD250010852600109F
:10256000F52500104FF080439B6803F40023002BF7
:1025700011D14FF080439B684FF0804243F4002319
:1025800093604FF00060FFF79FFF0346002B02D0DF
:102590006FF00903B6E04FF080439B6823F460635B
:1025A0004FF0804243F40063936092E04FF0804329
:1025B0009B6803F48013002B11D14FF080439B687C
:1025C0004FF0804243F4801393604FF08050FFF748
:1025D0007BFF0346002B02D06FF0090392E04FF01F
:1025E00080439B6823F460634FF0804243F4206390
:1025F00093606EE04FF00040FFF766FF0346002B4C
:1026000008D00720FFF7EEFEF860FB68002B01D032
:10261000FB6877E04FF080439B684FF0804243F4C3
:102620006063936055E04FF080439B6803F4803310
:10263000002B11D14FF080439B684FF0804243F450
:10264000803393604FF08070FFF73EFF0346002B0E
:1026500002D06FF0090355E04FF080439B6823F4EC
:1026600060634FF0804243F48063936031E04FF049
:1026700080439B6823F460634FF0804243F4C0635F
:10268000936026E04FF080439B6803F40033002BF7
:1026900011D14FF080439B684FF0804243F40033E8
:1026A00093604FF00070FFF70FFF0346002B02D03E
:1026B0006FF0090326E04FF080439B6823F46063CA
:1026C0004FF0804243F44063936002E06FF00203F6
:1026D00018E04FF40050FFF7F7FE0346002B0ED032
:1026E0004FF080439B6823F46062BB6803F460632F
:1026F0004FF0804113438B606FF0090302E0FFF756
:1027000069FC002318461037BD4680BD80B483B0F5
:1027100000AF0346FB71FB79432B08D14FF0804398
:102720001B6D03F0F003A02B01D11123FB71FB798A
:102730003F2B12D9FB79403BFB71FB7901229A4078
:102740001D4B5A6000BF1C4B5B68FA79012101FAEE
:1027500002F21340002BF6D128E0FB791F2B14D98D
:10276000FB79203BFB71FB7901229A404FF08043BB
:102770005A6400BF4FF080435B6CFA79012101FA83
:1027800002F21340002BF5D110E0FB7901229A40B0
:102790004FF080435A6000BF4FF080435B68FA7986
:1027A000012101FA02F21340002BF5D100BF0C37D2
:1027B000BD4680BC704700BF006C104080B582B041
:1027C00000AF78607B68002B43DB7B68072B40DC25
:1027D00023497A6813469B0013449B000B441B68F3
:1027E000002B36D001211F4808F0EBFB0346002BDD
:1027F00002D06FF005032EE019497A6813469B005A
:1028000013449B000B4400221A6015497A68134652
:102810009B0013449B000B440C331B6800221A607E
:102820000F497A6813469B0013449B000B440C33FA
:1028300019680B487A6813469B0013449B000344B5
:102840000C331B684A685A60064808F0E0FB002316
:1028500001E06FF0020318460837BD4680BD00BF97
:10286000800801202009012080B582B000AF786087
:102870007B68284A934214D07B68274A93420ED043
:102880007B68264A934208D07B68254A934201D14F
:10289000032307E04FF0FF3304E0022302E00123AB
:1028A00000E00023032B2DD801A252F823F000BF33
:1028B000C1280010CF280010DD280010EB280010E0
:1028C0000B20FFF723FF0920FFF7FAFC1DE00C2087
:1028D000FFF71CFF0A20FFF7F3FC16E01C20FFF7B0
:1028E00015FF2120FFF7ECFC0FE04220FFF70EFF61
:1028F0004220FFF7E5FC0B4B1B690A4A23F0F0036B
:10290000136102E06FF0100300E00023184608375F
:10291000BD4680BD0020044000300440004004401B
:1029200000501440006C104080B588B000AFF860D3
:10293000B9601346FB710023BB6100237B61082350
:102940003B61FB68734A93420ED0FB68724A934224
:102950000AD0FB68714A934206D0FB68704A9342E2
:1029600002D06FF00203D0E0FB686D4A934240F062
:10297000B480FB6805225A61FB79052B00F2978031
:1029800001A252F823F000BFA1290010E92900108C
:10299000AF2A0010AF2A0010132A0010632A00107B
:1029A000FB681A68FB681A604FF080439B6903F06C
:1029B0000303082202FA03F33B615A4B1A683B698E
:1029C000B2FBF3F2BB68B2FBF3F37B61554B1A68C1
:1029D0003B69B2FBF3F3BA68B3FBF2F2B96801FBEF
:1029E00002F29B1ABB6165E0FB681B6843F480320E
:1029F000FB681A604C4ABB68B2FBF3F37B614A4B3D
:102A0000BA68B3FBF2F2B96801FB02F29B1ABB6130
:102A100050E0FB681B6843F40032FB681A60FB68F7
:102A20001B6843F40012FB681A604FF48032BB68E5
:102A3000B2FBF3F37B614FF48033BA68B3FBF2F27D
:102A4000B96801FB02F29B1ABB61BB68B3F5166F54
:102A500003D9FB6800225A612CE0FB6801225A610D
:102A600028E0FB681B6843F44032FB681A60FB688F
:102A70001B6843F40012FB681A602C4ABB68B2FB67
:102A8000F3F37B61294BBA68B3FBF2F2B96801FB3F
:102A900002F29B1ABB61BB68B3F5166F03D9FB68E2
:102AA00000225A6106E0FB6801225A6102E06FF0E1
:102AB00002032AE07B69002B04D0BB685A08BB697B
:102AC0009A4202D27B6901337B617A69FB681A61A1
:102AD000F86800F02DF8F86106E0FB791A46B9684D
:102AE000F86800F097F8F861FB69002B0CDDFB68D3
:102AF0001B6843F40042FB681A6000BFFB681B6858
:102B000003F40023002BF9D0FB6918462037BD469B
:102B100080BD00BF0020044000300440004004405D
:102B2000005014401800012020BCBE0000710200BB
:102B300080B584B000AF78600023FB600823BB60E1
:102B40007B682D4A93420ED07B682C4A93420AD070
:102B50007B682B4A934206D07B682A4A934202D074
:102B60006FF0020344E07B68264A93423CD17B68C5
:102B70001B6803F44033B3F5803F01D1224B37E0AB
:102B80007B681B6803F44033002B0FD14FF0804368
:102B90009B6903F00303082202FA03F3BB601B4B9B
:102BA0001A68BB68B2FBF3F3FB6017E07B681B6835
:102BB00003F44033B3F5003F03D14FF48033FB609F
:102BC0000CE07B681B6803F44033B3F5403F02D14F
:102BD0000F4BFB6002E06FF0020309E0FA687B68CC
:102BE0001B69B2FBF3F303E0786800F0A3F8034637
:102BF00018461037BD4680BD002004400030044018
:102C0000004004400050144020BCBE0018000120C9
:102C10000071020080B586B000AFF860B96013465D
:102C2000FB7100237B6100233B61FB6805225A6135
:102C3000FB79032B5ED801A252F823F04D2C001033
:102C4000732C00109D2C0010CB2C0010364B1B68F1
:102C50005A08BB68B2FBF3F37B61334B1B685B081C
:102C6000BA68B3FBF2F2B96801FB02F29B1A3B614E
:102C700043E0FB681B6843F48032FB681A602B4A10
:102C8000BB68B2FBF3F37B61284BBA68B3FBF2F28B
:102C9000B96801FB02F29B1A3B612EE04FF4E1029E
:102CA000BB68B2FBF3F37B614FF4E103BA68B3FB9B
:102CB000F2F2B96801FB02F29B1A3B61FB681B68E8
:102CC00043F40032FB681A6017E0194ABB68B2FB94
:102CD000F3F37B61164BBA68B3FBF2F2B96801FB00
:102CE00002F29B1A3B61FB681B6843F44032FB68AD
:102CF0001A6002E06FF0020311E07B69002B04D040
:102D0000BB685B083A699A4202D97B6901337B61EF
:102D1000FB687A691A61F868FFF70AFF03461846EC
:102D20001837BD4680BD00BF1800012020BCBE0082
:102D30000048E80180B485B000AF78600023FB60F4
:102D40007B681B6803F44033B3F5803F02D1184B16
:102D5000FB6022E07B681B6803F44033002B04D146
:102D6000144B1B685B08FB6017E07B681B6803F46F
:102D70004033B3F5003F03D14FF4E103FB600CE0B7
:102D80007B681B6803F44033B3F5403F02D10A4B24
:102D9000FB6002E06FF0020304E0FA687B681B69E5
:102DA000B2FBF3F318461437BD4680BC704700BF32
:102DB00020BCBE00180001200048E80180B483B0A8
:102DC00000AF78600B46FB70FB78042B5FD801A244
:102DD00052F823F0E92D0010F72D00101D2E0010E1
:102DE000432E0010692E00107B681B6823F0100230
:102DF0007B681A604EE07B681B6843F010027B68BA
:102E00001A607B681B6823F020027B681A607B686D
:102E10001B6823F040027B681A603BE07B681B68FC
:102E200043F010027B681A607B681B6823F0200265
:102E30007B681A607B681B6843F040027B681A60FD
:102E400028E07B681B6843F010027B681A607B688F
:102E50001B6843F020027B681A607B681B6823F0C4
:102E600040027B681A6015E07B681B6843F0100223
:102E70007B681A607B681B6843F020027B681A60DD
:102E80007B681B6843F040027B681A6002E06FF0C9
:102E9000020300E0002318460C37BD4680BC704793
:102EA00080B485B000AF78600B46FB707B681B6810
:102EB000FB60FB78042B7CD801A252F823F000BF02
:102EC000052F0010D52E0010672F0010352F001091
:102ED000952F0010FB68DA6A7B685B681A43FB6811
:102EE000DA62FB68DA6D7B685B68DB431A40FB687B
:102EF000DA65FB689A6A7B685B68DB431A40FB68AB
:102F00009A6259E0FB68DA6A7B685B68DB431A40C7
:102F1000FB68DA62FB68DA6D7B685B68DB431A404A
:102F2000FB68DA65FB689A6A7B685B681A43FB6832
:102F30009A6241E0FB68DA6A7B685B68DB431A40AF
:102F4000FB68DA62FB68DA6D7B685B68DB431A401A
:102F5000FB68DA65FB689A6A7B685B68DB431A404A
:102F6000FB689A6228E0FB68DA6A7B685B681A4350
:102F7000FB68DA62FB68DA6D7B685B68DB431A40EA
:102F8000FB68DA65FB689A6A7B685B681A43FB68D2
:102F90009A6211E0FB68DA6D7B685B681A43FB6834
:102FA000DA65FB689A6A7B685B681A43FB689A6219
:102FB00002E06FF0020300E0002318461437BD461C
:102FC00080BC704780B485B000AFF8600B467A6073
:102FD000FB72FB681A6B7B681A43FB681A63FB6819
:102FE0007A685A60FB7A052B68D801A252F823F060
:102FF000093000102B3000104D30001069300010E7
:1030000085300010A1300010FB687A685A61FB68B7
:103010007A685A60FB687A681A67FB687A68DA67C8
:10302000FB687A68C3F888204BE0FB687A681A610D
:10303000FB687A685A60FB687A681A67FB687A6886
:10304000DA67FB687A68C3F888203AE0FB687A6838
:10305000C3F88820FB687A68DA67FB687A681A67C1
:10306000FB687A689A602CE0FB687A68C3F888206D
:10307000FB687A68DA67FB687A68DA66FB687A6800
:103080009A601EE0FB687A68C3F88820FB687A685B
:103090009A67FB687A681A67FB687A689A6010E03A
:1030A000FB687A68C3F88820FB687A689A67FB68CF
:1030B0007A68DA66FB687A689A6002E06FF0020369
:1030C00000E0002318461437BD4680BC704700BF9F
:1030D00080B485B000AFF8600B467A60FB72FB7A73
:1030E000032B53D801A252F823F000BFFD3000108B
:1030F00023310010473100106B310010FB68D3F80A
:10310000B0207B68DB431A40FB68C3F8B020FB6843
:10311000D3F8B4207B68DB431A40FB68C3F8B420C3
:1031200046E0FB68D3F8B0207B681A43FB68C3F81D
:10313000B020FB68D3F8B4207B68DB431A40FB68FF
:10314000C3F8B42034E0FB68D3F8B0207B68DB43DD
:103150001A40FB68C3F8B020FB68D3F8B4207B6842
:103160001A43FB68C3F8B42022E0FB68D3F8B02010
:103170007B681A43FB68C3F8B020FB68D3F8B4201F
:103180007B681A43FB68C3F8B42011E0FB68D3F8EE
:10319000B0207B68DB431A40FB68C3F8B020FB68B3
:1031A000D3F8B4207B68DB431A40FB68C3F8B42033
:1031B000002318461437BD4680BC704780B588B0E0
:1031C00002AFF860B9607A603B60FB68184A9342CE
:1031D0000ED0FB68174A934208D0FB68164A934208
:1031E00001D1022305E04FF0FF3302E0012300E0AC
:1031F00000237B613B68042B02DD6FF0020313E0C8
:103200000E4B1B685B087A6A9A4202D96FF0020380
:103210000AE07B6A01933B6A00933B687A68B9686D
:10322000F86800F073F8034618461837BD4680BDAD
:103230000060044000700440008004401800012039
:1032400080B584B000AF78607B681B4A93420ED093
:103250007B681A4A934208D07B68194A934201D18D
:10326000022305E04FF0FF3302E0012300E00023DA
:10327000FB60786800F03AF97B680F4A934203D10B
:103280000620FFF71DF812E07B680C4A934203D139
:103290000720FFF715F80AE07B68094A934203D13B
:1032A0000820FFF70DF802E06FF0030300E00023B1
:1032B00018461037BD4680BD0060044000700440D1
:1032C0000080044080B483B000AF78607B680B4A14
:1032D000934207D07B680A4A934203D07B68094A2D
:1032E000934203D1084B1B685B0801E06FF00203B7
:1032F00018460C37BD4680BC704700BF00600440D4
:1033000000700440008004401800012080B586B0A1
:1033100000AFF860B9607A603B60FB686E4A934228
:103320000ED0FB686D4A934208D0FB686C4A93420A
:1033300001D1022305E04FF0FF3302E0012300E05A
:1033400000237B617B69002B02DA6FF00203BEE091
:1033500064497A6913469B001344DB000B44002246
:103360001A6060497A6913469B001344DB000B44E2
:10337000083300221A605B497A6913469B001344A4
:10338000DB000B440C3301221A6056497A6913465C
:103390009B001344DB000B44103300221A60514998
:1033A0007A6913469B001344DB000B441C33002254
:1033B0001A604C497A6913469B001344DB000B44A6
:1033C000203300221A6047497A6913469B00134450
:1033D000DB000B4414336FF001021A6041497A6933
:1033E00013469B001344DB000B4418336FF00102BB
:1033F0001A603C497A6913469B001344DB000B4476
:10340000273301221A70FB6801225A60FB68364A92
:103410001A61BB68002B06D0FB685B6843F00202B0
:10342000FB685A6005E0FB685B6823F00202FB68FA
:103430005A60796AF86808F0DEF93B6AFF2B02D916
:103440006FF0020343E0FB68DA683B6A1B041A432F
:10345000FB68DA60FB681A6AFB681A6221497A69BC
:1034600013469B001344DB000B4427331B78002BCF
:1034700023D03B68012B05D1FB685B6843F48032A5
:10348000FB685A603B68022B05D1FB685B6843F41C
:103490004032FB685A603B68032B05D1FB685B68D0
:1034A00043F4E022FB685A603B68042B05D1FB68BB
:1034B0005B6843F47022FB685A607B68002B05D080
:1034C000FB68DB6843F40052FB68DA6000231846AF
:1034D0001837BD4680BD00BF006004400070044046
:1034E00000800440240901200101010080B584B05E
:1034F00000AF78607B68584A93420ED07B68574A89
:10350000934208D07B68564A934201D1022305E0DA
:103510004FF0FF3302E0012300E00023FB607B68F3
:1035200000225A627B681A6A7B681A627B685B6851
:1035300023F001027B685A607B68DB6923F040124C
:103540007B68DA614749FA6813469B001344DB0045
:103550000B441B68002B2AD04249FA6813469B0093
:103560001344DB000B441B68BB60FA6813469B00E6
:103570001344DB003B4A1344184607F048FD394921
:10358000FA6813469B001344DB000B441B685B6A1C
:10359000002B0CD03349FA6813469B001344DB0020
:1035A0000B441B685B6A6FF00E01B86898477B6834
:1035B00000225A607B6800229A607B680022DA60F1
:1035C0007B6800221A612749FA6813469B0013445E
:1035D000DB000B4414331B68002B16DB2149FA680F
:1035E00013469B001344DB000B4414331B6818463E
:1035F000FFF7E4F81B49FA6813469B001344DB000D
:103600000B4414336FF001021A601649FA6813462E
:103610009B001344DB000B4418331B68002B16DBA4
:103620001049FA6813469B001344DB000B4418331F
:103630001B681846FFF7C2F80A49FA6813469B0050
:103640001344DB000B4418336FF001021A600023AF
:1036500018461037BD4680BD00600440007004402D
:10366000008004402409012080B586B000AF786056
:103670003960304B1B685B083A689A4202D96FF098
:10368000020353E07868FFF71DFE0346BB60BA688B
:103690003B68B2FBF3F3BB60BB685B087B61BB6854
:1036A0005B083B610023FB60BB6803F00103002B58
:1036B00010D07B6901337B610CE07B69DA0F134426
:1036C0005B107B613B69DA0F13445B103B61FB6865
:1036D0000133FB607B690F2B02DDFB68072BECDD00
:1036E000FB68082B03D10F233B610F237B617B68B1
:1036F0005B6923F0FF023B69DBB21A437B685A61C6
:103700007B685B6923F47F427B691B029BB21A438F
:103710007B685A617B685B6923F47022FB681B0439
:1037200003F470231A437B685A6100231846183744
:10373000BD4680BD1800012080B485B000AF786020
:1037400039603B68012B02D03B68102B02DD6FF023
:10375000020354E07B682C4A93420ED07B682B4ACC
:10376000934208D07B682A4A934201D1022305E0A4
:103770004FF0FF3302E0012300E00023FB607B6891
:103780001B6B03F00103002B37D12249FA68134663
:103790009B001344DB000B440C331B68012B2CD122
:1037A0007B685B6823F001027B685A6039681948BE
:1037B000FA6813469B001344DB0003440833196086
:1037C0003B680F2B0BDC7B68DB6823F470623B6883
:1037D0001B0203F470631A437B68DA6005E07B68C0
:1037E000DB6823F470627B68DA607B685B6843F0B7
:1037F00001027B685A60002301E06FF0060318465F
:103800001437BD4680BC704700600440007004401F
:10381000008004402409012080B485B000AF7860A6
:1038200039603B68032B02DD6FF002033FE07B68E9
:103830005B6803F00203002B02D16FF0060336E051
:103840007B681D4A93420ED07B681C4A934208D085
:103850007B681B4A934201D1022305E04FF0FF33FE
:1038600002E0012300E00023FB601649FA681346DA
:103870009B001344DB000B4427331B78002B15D02F
:103880007B685B6801213A6801FA02F212041A436C
:103890007B685A607B685A6801213B6801FA03F330
:1038A0001B0463F470231A407B685A600023184697
:1038B0001437BD4680BC704700600440007004406F
:1038C000008004402409012080B483B000AF7860F8
:1038D0000B46FB70FB78032B3ED801A252F823F075
:1038E000F13800100B390010253900103F39001055
:1038F0007B68DB6823F001027B68DA607B68DB6849
:1039000023F002027B68DA6027E07B68DB6843F023
:1039100001027B68DA607B68DB6823F002027B6867
:10392000DA601AE07B68DB6823F001027B68DA600A
:103930007B68DB6843F002027B68DA600DE07B683D
:10394000DB6843F001027B68DA607B68DB6843F088
:1039500002027B68DA6000E000BF002318460C37E3
:10396000BD4680BC704700BF80B485B000AF7860B2
:1039700039607B68144A93420ED07B68134A9342A5
:1039800008D07B68124A934201D1022305E04FF030
:10399000FF3302E0012300E00023FB603B68002BC3
:1039A00014BF01230023D8B20A49FA6813469B00CA
:1039B0001344DB000B44273302461A7000BF143750
:1039C000BD4680BC704700BF0060044000700440EA
:1039D000008004402409012080B596B006AF7860CD
:1039E0000423002B25D008F0E8F80346BB734D4BA9
:1039F0001B683B610123FB73FB7B83F00103DBB29C
:103A0000002B16D17B681B687A68526879688968D0
:103A1000059104920393444B0293002301930023E6
:103A20000093002301223969002008F0CDF800231B
:103A30007B610423002B25D008F0BFF803467B7779
:103A4000384B1B68BB610123BB77BB7F83F001034D
:103A5000DBB2002B16D17B68DB687A681269796863
:103A60004969059104920393304B0293002301931B
:103A70000023009300230122B969002008F0A4F874
:103A80000023BB620423002B20D008F096F80346E5
:103A900087F82730234B1B683B620123FB77FB7FB2
:103AA00083F00103DBB2002B10D17B68DB69039349
:103AB0001F4B029300230193002300930023012254
:103AC000396A002008F080F80023FB620423002BF1
:103AD00023D008F072F8034687F83730114B1B6883
:103AE0003B63012387F83F3097F83F3083F00103B1
:103AF000DBB2002B11D17B689B6903930D4B0293C2
:103B0000002301930023009300230122396B00203E
:103B100008F05AF80023BB6300BF00BF4037BD4622
:103B200080BD00BF2000012070F50010A0F500103E
:103B3000D0F50010E0F5001080B58CB004AF7860CF
:103B400039603B68002B02D03868FFF745FF7B687F
:103B5000012B27D1EFF30583BB60BB68103BFB61F2
:103B60000423002B1ED008F028F80346FB76114BE7
:103B70001B687B610123FB74FB7C83F00103DBB2D8
:103B8000002B0FD1FB6903930B4B0293002301938E
:103B900000230093002301227969002008F014F823
:103BA0000023FB603968786802F022FB00BF2037F1
:103BB000BD4680BD2000012010F6001030BFFFF789
:103BC000FDBF00BF80B400AF034A044B1344184646
:103BD000BD4680BC704700BF00000000040000002C
:103BE00080B582B000AF7860094B1A460949786801
:103BF0000BF02AF9064A7B6813447B60064B1A4691
:103C0000002178680BF02EF900BF0837BD4680BD53
:103C100000000000FCF200100400000080B400AFBF
:103C20000A4B9B6893F90E30002B0BDB074B5A694C
:103C3000064B9B689A4205D0054B5B68044A43F0EB
:103C40008053536000BFBD4680BC7047E809012027
:103C500000ED00E080B5A6B004AFF860B9607A600E
:103C60001023BB676FF01503FB660423002B1FD0E6
:103C700007F0FDFF034687F87630A94B1B683B67CA
:103C8000012387F8773097F8773083F00103DBB2B0
:103C9000002B0DD1A34B029300230193002300932B
:103CA00000230122396F002007F0E8FF0023FB67A3
:103CB0009D4B9B6A03F01003002B26D01123BB679A
:103CC0000423002B21D007F0D2FF034687F882306F
:103CD000934B1B68C7F88430012387F8833097F82B
:103CE000833083F00103DBB2002B0ED18F4B0293A4
:103CF000002301930023009300230122D7F88410AE
:103D0000002007F0BBFF0023BB66874B9B6A03F0D4
:103D10000803002B24D01223BB670423002B1FD0E1
:103D200007F0A5FF034687F867307D4B1B683B66AD
:103D3000012387F85F3097F85F3083F00103DBB22F
:103D4000002B0DD17A4B02930023019300230093A3
:103D500000230122396E002007F090FF0023BB658D
:103D6000714B9B6A03F00203002B5DD01323BB67EA
:103D70000423002B1FD007F07AFF034687F8573043
:103D8000674B1B683B65012387F84F3097F84F302E
:103D900083F00103DBB2002B0DD1664B02930023AD
:103DA00001930023009300230122396D002007F0C6
:103DB00065FF0023BB645C4B5B6B7B645A4B9B6A67
:103DC00003F08003002B2FD07B6CFB660423002BB9
:103DD00021D007F04CFF034687F84330504B1B6857
:103DE000FB63012387F83B3097F83B3083F00103F6
:103DF000DBB2002B0FD1FB6E03934F4B02930023DA
:103E000001930023009300230122F96B002007F0A7
:103E100035FF00237B63BB68002B05D0424B9B6AB8
:103E2000414A23F0800393623F4B9B6A03F00103F6
:103E3000002B24D01423BB670423002B1FD007F0D2
:103E400016FF034687F83330354B1B68FB620123AE
:103E500087F82B3097F82B3083F00103DBB2002B6F
:103E60000DD1364B029300230193002300930023CE
:103E70000122F96A002007F001FF00237B622A4B30
:103E80009B6A03F02003002B22D01523BB67042379
:103E9000002B1DD007F0EBFE034687F82330204BA4
:103EA0001B68FB610123FB76FB7E83F00103DBB221
:103EB000002B0DD1224B029300230193002300938A
:103EC00000230122F969002007F0D8FE00237B615E
:103ED000154B9B6A03F01003002B01D1124B9B6A18
:103EE000114B9B6A03F02003002B05D00E4B5B6A3D
:103EF0000D4A23F4005353620B4B9B6A0A4A43F06A
:103F0000FF0393620121F86807F0E0FE03461A46BA
:103F10007B681A70BB6F18468837BD4680BD00BFEE
:103F20002400012024F6001000ED00E03CF6001013
:103F300070F6001084F600109CF60010B4F6001025
:103F4000D4F6001080B5A8B004AFF860B9607A600C
:103F50001623C7F88C300423002B1FD007F087FEF0
:103F6000034687F87A30974B1B687B67012387F8F5
:103F70007B3097F87B3083F00103DBB2002B0DD14F
:103F8000914B02930023019300230093002301220D
:103F9000796F002007F072FE0023FB678B4B9B6A52
:103FA00003F48053002B28D01723C7F88C30042348
:103FB000002B22D007F05BFE034687F88230814B4E
:103FC0001B68C7F88430012387F8833097F8833063
:103FD00083F00103DBB2002B0FD17D4B0293002352
:103FE00001930023009300230122D7F884100020BE
:103FF00007F044FE0023C7F88830744B9B6A03F433
:104000000063002B25D01823C7F88C300423002B25
:104010001FD007F02CFE034687F87330694B1B68EE
:10402000FB66012387F86B3097F86B3083F0010350
:10403000DBB2002B0DD1674B0293002301930023C9
:10404000009300230122F96E002007F017FE0023E1
:104050007B665E4B9B6A03F40073002B5CD01923D4
:10406000C7F88C300423002B1FD007F000FE034656
:1040700087F86330534B1B68FB65012387F85B307F
:1040800097F85B3083F00103DBB2002B0DD1524B6C
:104090000293002301930023009300230122F96D72
:1040A000002007F0EBFD00237B65484B9B6B3B65D5
:1040B000464B9B6A03F40043002B2DD00423002BB6
:1040C00021D007F0D4FD034687F84F303D4B1B68E5
:1040D000BB64012387F8473097F8473083F001032A
:1040E000DBB2002B0FD13B6D03933C4B02930023BB
:1040F00001930023009300230122B96C002007F0F4
:10410000BDFD00233B64BB68002B05D02F4B9B6A91
:104110002E4A23F4004393622C4B9B6A03F4806382
:10412000002B25D01A23C7F88C300423002B1FD076
:1041300007F09DFD034687F83F30224B1B68BB63A9
:10414000012387F8373097F8373083F00103DBB26B
:10415000002B0DD1224B02930023019300230093E7
:1041600000230122B96B002007F088FD00233B6388
:10417000164B9B6A03F48073002B35D01B23C7F8C2
:104180008C300423002B5BD007F071FD0346FB77D6
:104190000C4B1B68BB610123FB75FB7D83F00103A6
:1041A000DBB2002B4CD10F4B029300230193002371
:1041B000009300230122B969002007F05FFD00236E
:1041C0003B613DE02400012004F7001000ED00E019
:1041D0001CF7001070F6001030F700104CF70010BC
:1041E00064F7001080F700101F4B9B6A03F4005324
:1041F000002B25D01C23C7F88C300423002B1FD0A4
:1042000007F035FD034687F82F30184B1B68BB625B
:10421000012387F8273097F8273083F00103DBB2BA
:10422000002B0DD1124B0293002301930023009326
:1042300000230122B96A002007F020FD00233B6221
:10424000094B9B6A084A43F47F4393620121F86853
:1042500007F03CFD03461A467B681A70D7F88C308D
:1042600018469037BD4680BD00ED00E024000120D7
:10427000D4F6001080B5A2B004AF78601D237B6631
:104280000423002B1FD007F0F2FC034687F86230AE
:10429000934B1B68FB65012387F8633097F8633005
:1042A00083F00103DBB2002B0DD18E4B0293002370
:1042B00001930023009300230122F96D002007F0F1
:1042C000DDFC0023BB66884B9B6A03F00073002B68
:1042D00024D01E237B660423002B1FD007F0C7FCCD
:1042E000034687F86E307E4B1B683B67012387F8D7
:1042F0006F3097F86F3083F00103DBB2002B0DD1E4
:104300007A4B0293002301930023009300230122A0
:10431000396F002007F0B2FC00237B67724B9B6A69
:1043200003F08073002B24D01F237B660423002B13
:104330001FD007F09CFC034687F85B30684B1B6876
:104340007B65012387F8533097F8533083F00103DE
:10435000DBB2002B0DD1664B0293002301930023A7
:10436000009300230122796D002007F087FC0023D1
:10437000FB645D4B9B6A03F40023002B24D02123B4
:104380007B660423002B1FD007F071FC034687F8DF
:104390004B30534B1B687B64012387F8433097F8FD
:1043A000433083F00103DBB2002B0DD1514B02935C
:1043B000002301930023009300230122796C002045
:1043C00007F05CFC0023FB63474B9B6A03F48023EC
:1043D000002B24D022237B660423002B1FD007F060
:1043E00046FC034687F83B303D4B1B687B6301234B
:1043F00087F8333097F8333083F00103DBB2002BBA
:104400000DD13D4B02930023019300230093002321
:104410000122796B002007F031FC0023FB62324B54
:104420009B6A03F40033002B24D023237B660423F0
:10443000002B1FD007F01BFC034687F82B30284BBE
:104440001B687B62012387F8233097F8233083F0C1
:104450000103DBB2002B0DD1284B02930023019303
:104460000023009300230122796A002007F006FC54
:104470000023FB611C4B9B6A03F48033002B21D08B
:1044800024237B660423002B1CD007F0F0FB03469B
:10449000FB76134B1B687B610123FB74FB7C83F071
:1044A0000103DBB2002B0DD1154B029300230193C6
:1044B00000230093002301227969002007F0DEFB2E
:1044C0000023FB60084B9B6A074A6FEA03436FEACD
:1044D000134393627B6E18467837BD4680BD00BF9C
:1044E0002400012098F7001000ED00E0B0F7001064
:1044F000C4F70010E0F7001000F8001028F80010D2
:1045000044F8001080B58AB004AF786039603B6829
:1045100000221A700423002B1DD007F0A8FB0346CD
:10452000FB750F4B1B683B610123FB73FB7B83F027
:104530000103DBB2002B0ED10A4B0293002301933F
:1045400000230093002301223969002007F096FB25
:104550000023BB6000BF00BF1837BD4680BD00BF51
:104560002400012070F8001080B485B000AF78609E
:104570007B689B69FB601B4B5B691A4A43F4807341
:104580005361BFF34F8F00BF00BF00BFBFF36F8FFA
:1045900000BF00BF00BFFB6833F8023C7B81114BBA
:1045A0005B69104A23F480735361BFF34F8F00BFE0
:1045B00000BF00BFBFF36F8F00BF00BF00BF7B898C
:1045C00003F47F43B3F55F4F05D17B89DBB2022B48
:1045D00001D1012300E0002318461437BD4680BCFA
:1045E000704700BF00ED00E080B59AB004AF78607E
:1045F000396000233B640423002B1FD007F037FBF6
:10460000034687F84A30794B1B687B64012387F89F
:104610004B3097F84B3083F00103DBB2002B0DD108
:10462000734B029300230193002300930023012284
:10463000796C002007F022FB0023FB643B6800221A
:104640001A706C4BDB6A03F00203002B22D00423A8
:10465000002B00F0C58007F00AFB0346FB76634B96
:104660001B687B610123FB74FB7C83F00103DBB2DD
:10467000002B40F0B580604B029300230193002390
:104680000093002301227969002007F0F7FA002344
:10469000FB60A5E0574BDB6A002B25DA0423002BD7
:1046A00000F09E8007F0E3FA034687F82B304F4B6B
:1046B0001B687B62012387F8233097F8233083F04F
:1046C0000103DBB2002B40F08B804C4B02930023A4
:1046D00001930023009300230122796A002007F050
:1046E000CDFA0023FB617BE0424BDB6A03F08043A1
:1046F000002B75D00423002B1FD007F0B8FA034617
:1047000087F85630394B1B683B65012387F85730D3
:1047100097F8573083F00103DBB2002B0DD1384BF3
:104720000293002301930023009300230122396D9B
:10473000002007F0A3FA0023FB637868FFF714FF5B
:104740000346002B29D00423002B22D007F08FFA38
:10475000034687F83B30254B1B687B63012387F8B2
:10476000333097F8333083F00103DBB2002B10D1E4
:104770007B681B680393234B029300230193002360
:10478000009300230122796B002007F077FA0023C1
:10479000FB627B681B683B6422E0164B9B6ADBB2C2
:1047A000002B06D03A6801217868FFF753FA386485
:1047B00016E0104B9B6A03F47F43002B07D03A6846
:1047C00001217868FFF7BEFB03463B6408E0094B14
:1047D0009B6AB3F5803F03D37868FFF74BFD3864DD
:1047E0003B6C18465837BD4680BD00BF24000120F1
:1047F00094F8001000ED00E0ACF80010D0F80010C4
:10480000E0F8001000F9001080B58CB006AF7860B9
:1048100039600423002B27D007F029FA0346FB75E3
:10482000134B1B683B610123FB73FB7B83F001038C
:10483000DBB2002B18D13B680F2B01DC0D4B00E0E5
:104840000D4B3A68103A049203930C4B02930023E9
:10485000019300230093002301223969002007F00F
:104860000DFA0023BB6000BF00BF1837BD4680BDF6
:10487000240001201CF9001034F9001050F9001038
:1048800080B586B000AFF860B9607A6000237B61C4
:104890007B6800221A70BB68033B092B35D801A244
:1048A00052F823F0CD480010D9480010E748001016
:1048B000F74800100B4900100B4900100B4900107D
:1048C0000B4900100B490010014900107968F86885
:1048D000FFF78AFE78611DE07A680021F868FFF72B
:1048E000B9F9786116E07A680021F868FFF72AFBC9
:1048F00003467B610EE0F868FFF7BCFC786109E0D5
:104900007968F868FFF7FEFD04E0B968F868FFF71A
:104910007BFF00BF7B681B7883F00103DBB2002BB9
:1049200003D0B968F86807F0C7F97B6918461837EB
:10493000BD4680BD80B58EB004AFF860B9607A60C6
:104940003B60002387F8233000237B623B68002212
:104950001A707B6803F07F43B3F17F4F01D00023CF
:1049600041E07B6803F00803002B27D07B6803F04D
:104970000403002B22D10423002B1DD007F077F96C
:10498000034687F822301A4B1B68FB610123FB7634
:10499000FB7E83F00103DBB2002B0DD1154B02939C
:1049A000002301930023009300230122F9690020D2
:1049B00007F064F900237B61002314E097F82330AB
:1049C00083F00103DBB2002B0CD07B6803F00803FB
:1049D000002B02D0BB687B6204E0FB687B623B6813
:1049E00001221A707B6A18462837BD4680BD00BF79
:1049F0002400012064F9001080B592B000AFF86087
:104A0000B9607A603B6000237B64264B5B68C3F32C
:104A100008033B640023BB63BB6B7B637B6B83F34B
:104A2000118800BFBFF36F8F00BF00BF07F13203D3
:104A30007A68B968F868FFF77DFFF86307F1330318
:104A40001A46396CF86BFFF71BFF786497F8333020
:104A5000002B23D107F110032022F96B18460AF02E
:104A6000F3F997F83230002B0BD0FB6AC3F308033D
:104A7000002B0CD1FB6A6FEA53236FEA4323FB62DE
:104A800005E0FB6A23F4FF7323F00103FB6207F1E7
:104A900010031946786CFFF74FF800E000BF483765
:104AA000BD4680BD00ED00E080B400AF074B5B6900
:104AB000064A43F010035361044B5B69034A23F039
:104AC0000803536100BFBD4680BC704700ED00E0A5
:104AD000EFF30880EFF3098101B57246FFF78CFF11
:104AE00001BD00BF202080F3118808484FF4006109
:104AF000401880F30988EFF314800221084380F303
:104B00001488BFF36F8F07F019F90000601F0120B0
:104B100080B584B000AF7860114B9B687A689A4288
:104B200016D1EFF30583FB60FB68002B14BF012354
:104B30000023DBB2002B0BD00A4B5B68094A43F021
:104B400080535360074B5B6A064A23F40043536269
:104B5000786803F027F800BF1037BD4680BD00BF5E
:104B6000E809012000ED00E080B485B000AF786076
:104B7000114B9B687A689A660F4B9B686FF00A022C
:104B8000DA660E4B5B680D4A43F080535360002396
:104B9000FB60FB68BB60BB6883F3118800BFBFF399
:104BA0006F8F00BF00BF044B9B68DB6E1846143745
:104BB000BD4680BC704700BFE809012000ED00E061
:104BC00080B48BB000AF7860EFF311837B617B69B9
:104BD0003B612023FB60FB6883F3128800BFBFF3B7
:104BE0006F8F00BF3B697B62134B5B69124A936016
:104BF000114B9B683B62114B4FF000625A603B6A5D
:104C00005B6E0F4A13603B6A9B6E7B623B6A0022BD
:104C10009A667B6AFB61FB69BB61BB6983F31188A0
:104C200000BFBFF36F8F00BF00BF7B6818462C37F3
:104C3000BD4680BC704700BFE809012000ED00E0E0
:104C40009C0901200B498A684FF030001044EFF3B3
:104C5000098C80E8F01F74467046FFF7B1FFA64646
:104C600004498A6802F1300090E8F01F8CF309884B
:104C700070470000E80901201EF0040F0CBFEFF39D
:104C80000880EFF30980816911F8021C0229FFD026
:104C900001B506F0B7FF01BD80B483B000AF034695
:104CA000FB7197F90730002B0BDBFB7903F01F0238
:104CB000064997F907305B09012000FA02F241F832
:104CC000232000BF0C37BD4680BC704700E100E0E8
:104CD00080B483B000AF03463960FB7197F90730A9
:104CE000002B0ADB3B68DAB20C4997F90730520116
:104CF000D2B20B4483F800230AE03B68DAB20849D9
:104D0000FB7903F00F03043B5201D2B20B441A7635
:104D100000BF0C37BD4680BC704700BF00E100E01B
:104D200000ED00E080B400AF094B0A4A23F07F0396
:104D30009360BFF34F8F00BF00BF00BFBFF36F8F03
:104D400000BF00BF00BF00BFBD4680BC704700BFB2
:104D50000000001000ED00E080B483B000AF0D4B08
:104D6000D3F888300B4A23F47003C2F88830EFF38D
:104D700014833B603B6823F004037B607B6883F310
:104D80001488BFF36F8F00BF00BF00BF0C37BD4654
:104D900080BC704700ED00E080B487B000AFF860E1
:104DA000B9607A603B607B68203B7B61114A7B691C
:104DB0009A617B699B6923F001027B699A613A6879
:104DC0007B691A603A6A7B695A607A6A7B699A6081
:104DD000BA6A7B69DA607B694FF08072DA617A695E
:104DE000FB681A65FB6800229A6600BF1C37BD4647
:104DF00080BC7047290D0010F0B585B000AFF86099
:104E0000B9607A6006F0A8FF0D4AFB689360FB6802
:104E10005B6E0C4A1360BE687B681D462C4686F3A9
:104E200009884FF00000084B984720464FF00001DA
:104E30004FF000024FF00003044C20477D6000BF9C
:104E4000E80901209C09012065BD0010290D001012
:104E500080B400AF034B10221A6100BFBD4680BC76
:104E6000704700BF00ED00E080B483B000AF0346A0
:104E70003960FB7197F90730002B0ADB3B68DAB227
:104E80000C4997F907305201D2B20B4483F8002342
:104E90000AE03B68DAB20849FB7903F00F03043BF0
:104EA0005201D2B20B441A7600BF0C37BD4680BC0B
:104EB000704700BF00E100E000ED00E080B584B085
:104EC00000AFEFF305837B607B68FB60FB68103B02
:104ED000FB60FB68DB00074A1344BB60BB685B6890
:104EE000BA68126810469847FEF798FE00BF103760
:104EF000BD4680BD84EF001080B582B000AF786001
:104F00003960044B1B6878689847002318460837B7
:104F1000BD4680BDA009012080B483B000AF786099
:104F2000074A7B681360074B9B7843F00203DAB2B1
:104F3000044B9A7000BF0C37BD4680BC704700BF61
:104F4000A00901202800012080B58AB000AFF860D8
:104F5000B9607A603B6007F1100300221A605A6062
:104F60009A60DA601A615A610223BB74084B7B6154
:104F7000FB683B62BB687B6207F110033A687968A3
:104F8000184603F0BFFC034618462837BD4680BDCF
:104F900041BE001080B582B000AF00237B600C4B97
:104FA000073323F007037B60094B073323F0070324
:104FB000C3F1005303F500333B603A687968054854
:104FC00004F01AF9002318460837BD4680BD00BF1B
:104FD00060270120A409012080B487B000AFF860E9
:104FE000B9607A60BB687B617B699B68072B36D8A8
:104FF00001A252F823F000BF1950001021500010F8
:1050000029500010335000103B5000104550001044
:105010004D500010555000107B68174A1A6024E06C
:105020007B6800221A6020E07B684FF4E1021A607E
:105030001BE07B68114A1A6017E07B684FF400425E
:105040001A6012E07B680E4A1A600EE07B680D4A17
:105050001A600AE07B684FF461221A6005E07B6801
:1050600000221A606FF0150300E0002318461C3779
:10507000BD4680BC704700BF80F0FA020048E801DE
:10508000803801000087930380B582B000AF78605C
:10509000124B184606F0A1FF0346002B01DA79688F
:1050A00017E07B680A2B04D10C4B0D21184606F043
:1050B00085FF0A4A7B68DBB21946104606F07EFF80
:1050C00006494FF00A024FF00003084606F08FFF32
:1050D00079680B4618460837BD4680BD34EF00108E
:1050E00080B500AF0348FFF717FF0248FBF702FE49
:1050F00000BF80BD8950001080B500AF084B184636
:1051000006F03DFF034683F00103DBB2002B02D023
:105110006FF0120302E0FFF7E3FF0023184680BDA3
:1051200034EF001080B58CB004AF78600023FB61D1
:105130007B685B68BB61BB699B68002B2DD0BB693A
:105140009A68BB6910331946104607F05BF8F8619E
:10515000FB69002B21D00423002B1CD006F053FF49
:105160000346FB750F4B1B683B610123FB73FB7B05
:1051700083F00103DBB2002B0DD10B4B0293002314
:10518000019300230093002301223969002007F0D6
:10519000DAF80023BB60FB6900E0FB6918462037A2
:1051A000BD4680BD38000120B8F9001080B58AB036
:1051B00000AF3B4683E803003B681B0903F00F0385
:1051C0007B623B681B0ADBB23B623B6803F00F0368
:1051D000FB617B68BB61464A7B6A52F82330002B37
:1051E00002D16FF015037FE0414A7B6A52F8233009
:1051F000FB6001223B6A02FA03F33B61BB6903F0E7
:105200000203002B02D001237B7509E0BB6903F088
:105210000403002B02D002237B7501E000237B7581
:10522000BB6903F00103002B02D000233B750CE0A7
:10523000BB6903F00803002B02D001233B7504E097
:10524000FB69DBB20133DBB23B75BB6903F01003D2
:10525000002B02D00123BB7501E00023BB75BB69A5
:1052600003F4C063B3F5C06F0FD0B3F5C06F0FD8B0
:10527000B3F5007F03D0B3F5806F03D008E00123BE
:10528000FB7508E00223FB7505E00323FB7502E0D4
:105290000023FB7500BF07F10C03184606F030F938
:1052A0000346002B02D06FF085031DE0BB6903F0BD
:1052B0000803002B17D0BB6903F02003002B09D093
:1052C000FA6801213B6A01FA03F31946104606F019
:1052D00087F908E0FA6801213B6A01FA03F31946ED
:1052E000104606F08AF9002318462837BD4680BDCF
:1052F000C8FE001080B588B000AF786039607B6868
:105300005B687B617B691B683B617B681B69FB6039
:10531000FB681A7D3B681B799A4233D03B681B7946
:10532000042B1CD801A252F823F000BF41530010F7
:10533000475300104D5300105353001059530010A1
:105340000023FB760EE00323FB760BE00123FB76C4
:1053500008E06FF085037FE06FF085037CE06FF07D
:10536000150379E0FB7E1946386905F0C0FEF86147
:10537000FB69002B02DA6FF085036DE03B681A7958
:10538000FB681A75FB685A7D3B685B799A4220D0AE
:105390003B685B79012B05D10021386905F097FE48
:1053A000F8610CE03B685B79032B05D1012138697A
:1053B00005F08DFEF86102E06FF085034CE0FB69BB
:1053C000002B02DA6FF0850346E03B685A79FB68F0
:1053D0005A75FB689A7D3B689B799A4211D03B686D
:1053E0009B7905331946386905F063FEF861FB695E
:1053F000002B02DA6FF085032EE03B689A79FB6898
:105400009A75FB68DA7D3B68DB799A420AD03B6883
:10541000DB79002B02D06FF085031DE03B68DA7961
:10542000FB68DA75FB681A693B681B689A4212D000
:105430003B6819687B695B691A46386907F062FA4C
:10544000F861FB69002B02DA6FF0850304E03B682A
:105450001A68FB681A61002318462037BD4680BDD4
:1054600080B592B004AF78607B685B687B637B6BD0
:105470001B683B637B6B9B68184607F0C8F90346C3
:1054800083F00103DBB2002B22D00423002B1CD0BD
:1054900007F0B6F90346FB76414B1B687B6101239D
:1054A000FB74FB7C83F00103DBB2002B0DD13D4B81
:1054B00002930023019300230093002301227969C2
:1054C000002007F0E1F90023FB606FF0120363E0B6
:1054D000386BFDF7C9F9F862FB6A002B01D0FB6A53
:1054E0005AE07B6B9A687B6B0C331946104607F0C9
:1054F000E9F9F862FB6A002B24D00423002B1FD0AB
:1055000007F07EF9034687F82B30254B1B687B623A
:10551000012387F8233097F8233083F00103DBB2AF
:10552000002B0DD1204B0293002301930023009305
:1055300000230122796A002007F0A6F90023FB610D
:10554000FB6A29E07B6B5B680021184607F07FF956
:10555000F862FB6A002B01D0FB6A1DE07B6B1833FD
:1055600019467868FFF7C6FEF862FB6A002B01D087
:10557000FB6A11E0386B07F0B7F9F862FB6A002BA1
:1055800001D0FB6A08E05021386B05F03EFE7B6BD2
:105590001B6A78689847FB6A18463837BD4680BD55
:1055A0003C00012000FA001020FA001080B58EB0F7
:1055B00006AF78607B689B68FB6142E0FB691B6813
:1055C000184607F0C1FB034683F00103DBB2002B52
:1055D00029D00423002B23D007F0AFFB0346FB7533
:1055E0001F4B1B683B610123FB73FB7B83F00103B3
:1055F000DBB2002B14D1FB691B681B68FA691279B6
:1056000004920393174B029300230193002300930A
:10561000002301223969002007F044FD0023BB600C
:105620006FF0120317E04FF4B011F86907F014FCA3
:10563000B861BB69002B01DABB690CE0FB69083378
:10564000FB617B689A687B68DB68DB001344FA695E
:105650009A42B3D3002318462037BD4680BD00BF11
:105660004000012058FA0010F0B599B00CAFF86076
:10567000B9607A60FB700423032B27D907F05DFB28
:10568000034687F82730564B1B683B62012387F897
:105690002F3097F82F3083F00103DBB2002B15D1A8
:1056A000FB7806937B680593BB6804934D4B03938B
:1056B0004D4B0293082301930023009300230422FF
:1056C000396A002007F0EEFC0023BB62BB68002BA8
:1056D00002D0BB681B6800E00023FA685363FB68D4
:1056E0005B6B002B02D0BB685B6800E00023FA68AC
:1056F0009363FB6803F13400FB6803F13801FB6836
:1057000003F14802FB7807F0C8FD0246FB685A64C3
:105710007B68002B02D07B681B6800E00023FA68DE
:10572000D363FB68DB6B002B02D07B685B6800E017
:105730000023FA681364FB6803F13C00FB6803F183
:105740004001FB6803F15002FB7807F0A6FD02461A
:10575000FB68DA64FB6800221A630423032B3AD93E
:1057600007F0EBFA0346FB771D4B1B68BB61012377
:10577000FB75FB7D83F00103DBB2002B2BD1FB68B3
:105780005B6BFA68926BF968C96BF868006CFC682F
:10579000646CFD68AD6CFE68F66CD7F80CC0DCF884
:1057A00050C0CDF82CC00A96099508940790069130
:1057B000059204930B4B03930C4B02930823019324
:1057C0000023009300230422B969002007F06AFC3B
:1057D00000233B6100BF00BF3437BD46F0BD00BFB2
:1057E00040000120380001107CFA0010A0FA0010DF
:1057F00080B5A4B006AF786000237B677B685B68E8
:105800003B677B681B69FB66FB6EBB663B6F1B6877
:10581000184606F079F8B86E07F01CFE034687F8C4
:105820006730B86E07F06BFD386697F867303A6EF0
:10583000DA40FB6EDA66BB6E5A6CFB6E5A6697F8FE
:1058400067303A6EDA40FB6E1A67BB6EDA6CFB6E3D
:105850009A66BB6EDA6CFB6E9A6697F867303A6EA2
:10586000DA40FB6E1A67FB6E9B6E002B07D1FB6E56
:1058700003F18002FB6E9A66FB6E00221A673B6F93
:105880001A68FB6E9A65BB6E1B68DB881A46FB6E56
:10589000DA65FB6E00221A66FB6E00225A67FB6E09
:1058A00000229A673B6F1A68FB6E58331946104600
:1058B00007F0E4FD3B6F1B6897F86720F96E184608
:1058C00007F04AFE78677B6F002B03D06FF004036C
:1058D0007B6728E1BB6E3B63012387F82F303B6E6B
:1058E000BB623B6B9B6C002B00F085803B6B9B6C21
:1058F000BA6A9A4222D90423002B1ED007F01DFA5F
:10590000034687F827308A4B1B683B620123FB77ED
:10591000FB7F83F00103DBB2002B0ED1854B02939A
:10592000002301930023009300230122396A002001
:1059300007F0B8FB0023BB615EE05DE03B6B9A6C57
:10594000BB6AD21A3B6B9A643B6B9B6C002B1BD1DE
:105950003B6B5B6B03F108023B6B5A633B6B9B6BCE
:105960005A1E3B6B9A633B6B03F134003B6B03F1B4
:1059700038013B6B03F1480297F82F3007F08DFC9C
:1059800002463B6B5A640DE03B6B5B6C002B09D00D
:105990003B6B5A6C97F82F30B96A01FB03F31A443A
:1059A0003B6B5A640423032B26D907F0C6F9034640
:1059B000FB755F4B1B683B610123FB73FB7B83F033
:1059C0000103DBB2002B17D13B6B5B6C3A6B926C23
:1059D00005920493584B0393584B02930823019369
:1059E00000230093002304223969002007F05AFBAA
:1059F0000023BB6000E000BFBB6EFB65012387F89E
:105A00005B303B6E7B65FB6D1B6D002B00F08A806D
:105A1000FB6D1B6D7A6D9A4224D90423002B20D094
:105A200007F08BF9034687F85330414B1B68FB6442
:105A3000012387F84B3097F84B3083F00103DBB23A
:105A4000002B0ED13B4B02930023019300230093C4
:105A500000230122F96C002007F024FB00237B6463
:105A600061E060E0FB6D1A6D7B6DD21AFB6D1A650B
:105A7000FB6D1B6D002B1BD1FB6DDB6B03F1080273
:105A8000FB6DDA63FB6D1B6C5A1EFB6D1A64FB6DBC
:105A900003F13C00FB6D03F14001FB6D03F150028B
:105AA00097F85B3007F0F9FB0246FB6DDA640DE016
:105AB000FB6DDB6C002B09D0FB6DDA6C97F85B306B
:105AC000796D01FB03F31A44FB6DDA640423032BA5
:105AD00029D907F032F9034687F84330144B1B6885
